:020000040800F2
:1000000070090120C10100086F4A00083D46000840
:100010006D4A0008DD2100081551000800000000AD
:10002000000000000000000000000000A14B0008DC
:100030003B240008000000009F4B0008A34B000871
:10004000DB010008DB010008DB010008DB01000820
:10005000DB010008DB010008DB010008DB01000810
:10006000DB010008DB010008DB010008DB01000800
:10007000DB010008DB010008DB010008DB010008F0
:10008000DB010008DB010008DB010008DB010008E0
:10009000DB010008DB010008DB010008DB010008D0
:1000A000DB010008DB010008DB010008DB010008C0
:1000B000DB010008DB010008DB010008DB010008B0
:1000C000DB010008DB010008DB010008DB010008A0
:1000D000DB010008F1500008FD500008095100083C
:1000E000DB010008DB010008DB010008DB01000880
:1000F000DB010008DB010008DB010008DB01000870
:10010000DB010008DB010008DB010008DB0100085F
:10011000DB010008DB010008DB010008DB0100084F
:1001200039230008DB010008DB010008DB010008BF
:10013000DB010008DB010008DB010008DB0100082F
:10014000DB010008DB010008DB010008DB0100081F
:10015000DB010008DB010008DB010008DB0100080F
:10016000DB010008DB010008DB010008DB010008FF
:10017000DB010008DB010008DB01000800000000D3
:10018000DB010008DB010008DB010008DB010008DF
:10019000DB010008DB010008DB010008DB010008CF
:1001A000DB010008DB010008DB010008DFF80CD0F0
:1001B00000F064FB004800470D650008700901204D
:1001C0000648804706480047FEE7FEE7FEE7FEE7F1
:1001D000FEE7FEE7FEE7FEE7FEE7FEE7494C000824
:1001E000AD0100082DE9F05F0546002092469B46D0
:1001F00088460646814640241BE02846414647463D
:10020000224600F086F953465A46C01A914110D34F
:1002100011461846224600F06DF92D1A67EB0108C9
:100220004F4622460120002100F064F917EB000937
:100230004E41201EA4F10104DFDC484631462A4627
:100240004346BDE8F09F40EA01039B0703D009E065
:1002500008C9121F08C0042AFAD203E011F8013BB2
:1002600000F8013B521EF9D27047D2B201E000F80B
:10027000012B491EFBD270470022F6E710B513464A
:100280000A4604461946FFF7F0FF204610BD2DE947
:10029000FE4F81EA030404F0004421F00041009481
:1002A0004FF0000B23F0004350EA01045ED052EA05
:1002B00003045BD0C3F30A54C1F30A552C44A4F2DF
:1002C000F3340194A0FB0254C1F3130141F48011F3
:1002D000C3F3130343F4801301FB024400FB034EFA
:1002E000840A970A44EA815447EA8357A4FB0768C3
:1002F00002958D0A05FB07854FEA932C04FB0C54ED
:100300002705029D4FEA065847EA1637B5EB080560
:100310006EEB070C870E920E47EA811742EA8312B2
:10032000A7FB0201B6EB0B0164EB00042B0D43EAC3
:100330000C335E1844EB1C50DA465146E7FB0201D1
:10034000C5F313044FEA0B3343EA14534FEA043264
:10035000019C43EA0603A4F10C040294009CCDE93D
:1003600000B400F04AF903B0BDE8F08F0020014668
:10037000F9E72DE9F04D81EA030404F0004B21F088
:10038000004514464FF0000A23F0004150EA0502F0
:1003900020D054EA01021DD0C5F30A570246C5F326
:1003A0001303C1F31300C1F30A5640F4801543F45C
:1003B0008013A7EB0608101BD64608F2FD3873EB36
:1003C000050002D308F1010801E092185B41B8F181
:1003D000000F03DA00200146BDE8F08D00204FF445
:1003E0008011064684460EE0171B73EB050705D304
:1003F000121B63EB050306434CEA010C49084FEA64
:10040000300092185B4150EA0107EDD152EA030037
:1004100012D082EA040083EA0501084305D0101BCC
:10042000AB4106D20122002306E000224FF0004338
:1004300002E06FF0010253101AEB06004CEB08517A
:1004400010EB0A0041EB0B01BDE8F04D00F0C6B81F
:100450000EB540F2334102910021CDE900110A4668
:100460000B4600F0CAF803B000BD00F0004230F0C7
:1004700000400AD0C10D01F56071C0F3160042EAD8
:100480000151C208400711437047002001467047E0
:1004900001F0004330B421F0004150EA010206D0DF
:1004A0000A0DA2F56072C1F31301002A02DC30BC10
:1004B00000207047440F44EAC104C100E01830BC7A
:1004C00000EBC25000F035B830B50B4601460020B5
:1004D0002022012409E021FA02F59D4205D303FA06
:1004E00002F5491B04FA02F52844151EA2F1010287
:1004F000F1DC30BD202A04DB203A00FA02F10020B2
:1005000070479140C2F1200320FA03F31943904051
:100510007047202A04DB203A21FA02F000217047BC
:1005200021FA02F3D040C2F120029140084319465B
:1005300070470029A8BF7047401C490008BF20F041
:100540000100704710B4B0FA80FC00FA0CF050EAD9
:10055000010404BF10BC704749B1CCF1200421FA5A
:1005600004F411FA0CF118BF012121430843A3EB55
:100570000C01CB1D4FEA00614FEA102042BF002062
:1005800010BC704700EBC35010440029A4BF10BC3E
:100590007047401C490008BF20F0010010BC7047A4
:1005A00010B541000CD0C0F3C751962908DC7E2954
:1005B00009DC06DB410204D000F0004040F07E5030
:1005C00010BD002010BDC1F19604C4F1200100FA55
:1005D00001F1E040FFF7ADFFA04010BD10B5141EC3
:1005E00073F1000408DA401C41F1000192185B41EC
:1005F0001A4301D120F0010010BD2DE9F04D9246C3
:100600009B4611B1B1FA81F202E0B0FA80F22032D9
:100610009046FFF76FFF04460F4640EA0A0041EAA2
:100620000B0153465A46084313D0114653EA0100C2
:1006300019D0C8F140025046FFF76BFF05460E4641
:10064000504659464246FFF755FF084305D0012062
:1006500004E020463946BDE8F08D0020054346EA17
:10066000E0762C4337430A986305E40AA0EB0800C0
:100670000022FD0A44EA47540A3002D50020014610
:10068000E9E7010510196941DDE9084500196941EB
:10069000BDE8F04DA2E72DE9FE4F804681EA030058
:1006A000C00F0C46009021F0004123F00045B8EB4C
:1006B0000200A94105D24046214690461C460B4601
:1006C000024623F00040104347D0270DC7F30A002D
:1006D000C3F30A510290401A019040286BDAC3F329
:1006E000130040F4801B0098924620B10023D2EB07
:1006F000030A63EB0B0B01985946C0F140025046C8
:10070000FFF7F8FE06460D4650465946019A00F09E
:10071000C7F810EB08006141002487EA115284EA0F
:10072000E7731A4340D0009A62B3019A012A4FEA54
:10073000075215DC001B61EB02014FF0004202EA98
:100740000752CDE90042001C41F5801132462B468C
:10075000FFF753FF03B0BDE8F08F40462146F9E7AD
:10076000001B61EB0201001C41F5801300185B4186
:100770002018A2F5001747EB030140EAD570B6191F
:100780006D4111E06D084FEA360645EAC0754FEA43
:100790000752001B61EB0201001C41F58011490862
:1007A0004FEA30000019514132462B4603B0BDE8F4
:1007B000F04FFFF713BF0098012240000023D0EB59
:1007C000020263EBE073009821464FEAE074B8EB55
:1007D000000061EB0401E9E783F000435BE781F08F
:1007E000004158E7C1F30A52C1F3130140F2FF334D
:1007F00041F480119A4202DA00200146704740F22B
:1008000033439A42A2F2334202DC5242FFF781BEE6
:10081000FFF770BE30B5041E71F1000404DB4FF029
:100820000044404264EB0101141E73F1000405DB37
:100830001C464FF00043524263EB0403994208BF49
:10084000904230BD002801DBC0F10040002901DBEF
:10085000C1F10041814202D24FF0004004E04FF06C
:10086000005001D14FF0C0404FEA2062EFF3008109
:1008700062F31F6181F3008870470000064C074D4A
:1008800006E0E06840F0010394E807009847103460
:10089000AC42F6D3FFF78EFCF82C0108182D0108A6
:1008A000202A06DBCB17203A41FA02F043EAE07334
:1008B00006E041FA02F3D040C2F120029140084321
:1008C00019467047F0B5F1B1002300BF02EB430CAD
:1008D00032F813E0BCF802C02EF0030E2CF0030C2B
:1008E00050F80E5050F80C6000EB0E0400EB0C07B3
:1008F00040F80E6040F80C507E68656802338B4209
:1009000066607D60E2D3F0BD2DE9F04F81B0012635
:100910006FF001044FEA510E06EB510704EB51084A
:100920004FEA420900240025009700BFAEB2B4424E
:100930004FEA44052BD250F8361050F82570F200DB
:1009400040F8251045F00101043240F83670875810
:1009500050F821A040F8217040F802A0009AA11898
:10096000324450F831B050F832704FEAC10A4FEAC1
:10097000C20C40F8317040F832B00AF104010CF1B9
:100980000402875850F801C0475040F802C006EBF7
:100990000E0100EB850650F83170D6E9025A4FEA95
:1009A000C10CB7600CF1040740F83150A11CC259CA
:1009B0001D888CB244454B44F26040F807A0B5D97D
:1009C00001B0BDE8F08F00002DE9F04104889846A1
:1009D00016460746012A0D460CD1E4B3281D2146D0
:1009E00090ED000A0139B1EE400A80ED000A00F1F5
:1009F0000800F5D1FF2C0CDDB4F5806F10DBB4F5E9
:100A0000805F22D0B4F5006F11D0B4F5806F17D09D
:100A100021E03F2C10DC102C12D0202C07D01AE043
:100A2000B4F5807F03D0B4F5007F0ED013E03846D4
:100A3000294600F06FF90EE0402C06D0802C0AD138
:100A40003846294600F09AF805E07A68284621469B
:100A5000012300F0BFFFB8F1000F04D0B989BA68D4
:100A60002846FFF72FFF012E1CD100EE104A002C64
:100A7000B8EE400A08BFBDE8F081B7EE001A81EE7B
:100A8000000A00BF95ED001A95ED012A20EE011A2B
:100A900022EE402A85ED001A85ED012A013C05F180
:100AA0000805EFD1BDE8F08170B50446807825884F
:100AB0006268A38901280E4606D194ED040A3046E7
:100AC000294600F0C9FD03E03046294600F016FC37
:100AD000E078012818BF70BD2188E289A3683046FC
:100AE000BDE87040FFF710BF4AF6F84C827047F639
:100AF000E442C0F6000CC370C0F60002FF294FF0BC
:100B0000FF030180C0F804C00DDDB1F5807F13D074
:100B1000B1F5805F15D0B1F5806F22D19FED160A37
:100B20000632042117E010290FD0402919D19FED7A
:100B3000100A7E3240210EE09FED0E0A1E32102177
:100B400009E09FED090A012105E09FED080A02F581
:100B5000FF724FF4807100238181C181826080ED3A
:100B6000040A58B2704700BF000080390000803D81
:100B70000000803C0000803B0000803A2DE9F047F7
:100B80002DED028B03888046084601EB830AD8F8D6
:100B900004200021B1EBD30F4FEA530900F0AB80E2
:100BA000D9080AEB890C00EB890E0027C4190AEB5F
:100BB000070594ED000A95ED003A94ED011A95EDC4
:100BC000014A0EEB07030CEB070694ED022A95EDA4
:100BD000025A70EE035A93ED006AD6ED001AD6ED74
:100BE000012AD6ED023AD6ED034AC4ED005A71EE61
:100BF000045A93ED017AC4ED015A72EE055AD3ED11
:100C0000020AC4ED025AD4ED035AD5ED036A31EE5F
:100C1000441A35EEA68A36EE214AD3ED037A84EDE6
:100C2000038A83ED004A37EE224A83ED014A30EE13
:100C3000A34A83ED024A37EEA44A83ED034AD3194F
:100C400031EEC64A33EEE06AD3ED000AD3ED011A65
:100C500030EE430A32EE452A32EEC75A60EE202AC1
:100C600061EE213A21EE201A20EE210A31EE400AEF
:100C700085ED010A24EE210A25EE211A25EE205ADF
:100C800072EEA32A24EE204A30EE450AC5ED002A72
:100C900086ED000A34EE010A86ED010A93ED020AA0
:100CA00093ED031A35EEE63A22EE004A23EE015A9E
:100CB00023EE003A22EE012A34EEE77A33EE422A9E
:100CC00085ED032A26EE012A27EE011A27EE003AC7
:100CD00026EE000A34EE054A32EE432A30EE010ACF
:100CE000013907F1100785ED024A86ED022A86EDEB
:100CF000030A7FF45BAF4946022300F06BFED8F88D
:100D00000420504649460223BDEC028BBDE8F04763
:100D100000F060BE2DE9F04F81B02DED088B8EB054
:100D200002880346500801EB800505EB800691ED33
:100D3000000A91ED011A96ED002A96ED013A04930E
:100D40005B6806EB800730EE024A30EE420A31EE75
:100D5000032A31EE431A95ED013A95ED005A0593B9
:100D6000930897ED017AD7ED000A029374EE452AB5
:100D700072EE433A34EE054A32EE032A6FF0010375
:100D800034EE204A32EE072A03EB920230EE036A79
:100D900071EE451A30EE430A31EE051A81ED004A34
:100DA0000A9181ED012A510836EE476A71EEA01AC8
:100DB00072EEE02A73EEC73A30EE070A31EE601A9F
:100DC0000095019603970D91C10085ED006AC5ED70
:100DD000011AC6ED002AC6ED013A87ED000A87ED3B
:100DE000011A0C9100EB40016FF007036FF003074D
:100DF0004FEA800E07EBC00B07EB800A03EB0019EC
:100E000003EB81028C000020002500210B9100BF24
:100E10000A9E059B07900695089406EB04080C9C17
:100E2000311806EB040C06EB0E0491ED020A9CED62
:100E3000022AD4ED020A30EE026AD8ED022A36EE1A
:100E4000204A34EE224A91ED031A9CED033AD4ED88
:100E5000031AD8ED033A81ED024A94ED034A31EECC
:100E6000037A98ED035A37EE044ACDF824E034EEC5
:100E7000054A81ED034A0B9930EE420A31EE431ADE
:100E800030EE212A03EB010E32EE634A31EE602A86
:100E90000D9932EE225A36EE602A37EE613A30EE84
:100EA000610A31EE201A1F18581932EE622A33EE09
:100EB000633A30EE230A002931EE621A00F0CC804A
:100EC0000A998E1801EB0A0301EB0905594493EDC9
:100ED000007AD6ED010AD1ED003A77EE202AD5ED61
:100EE000014A72EEA35A75EEA45A13ED016AD6EDCB
:100EF000001A51ED016AD5ED007AC3ED005A11EDEB
:100F0000018A76EE215A95ED009A35EE888A38EE00
:100F1000098A03ED018A97ED028A97ED039A24EE80
:100F200008AA25EE09BA25EE085A24EE094A35EE3C
:100F3000444A37EE605A84ED034A36EE614A35EE94
:100F4000666A33EEE47A36EE276A74EE070A66EED6
:100F5000091A20EE899A60EE880A26EE086A3AEEAF
:100F60000BAA71EEE00A36EE096A84ED02AAC1ED21
:100F7000000A01ED016A90ED046AD0ED050A62EE07
:100F8000061A23EE208A23EE063A22EE202A33EEBA
:100F9000422A8CED032A32EEE32A35EEE63A71EE70
:100FA000881A33EE673A32EE642A0D98CCED021AB5
:100FB00062EE461A23EE066A23EE203A22EE202A3B
:100FC00031EEC33A32EE462A013886ED013A86ED1B
:100FD000002A0D909EED062A9EED073A0C9820EE11
:100FE000026A61EE030A21EE021A20EE030A0830BB
:100FF00031EE400A37EEE61ADDF824E00C9088ED79
:10100000030A37EE440A31EE451A0B9821EE034AE3
:1010100020EE033A20EE020A36EE206A21EE021A92
:1010200034EE400A183088ED026A85ED010A31EE8F
:10103000030A089C0B9085ED000A069D07980EF1A7
:10104000080E083410350830A9F10809083AABF148
:10105000080BAAF1080ADBE697ED026A97ED037A1E
:1010600064EE060A65EE071A25EE065A24EE074AD4
:1010700030EEA16A35EE444A84ED026A84ED034AFB
:1010800090ED044A90ED055A22EE046A23EE057AAB
:1010900023EE043A22EE052A36EE074A33EE422AC0
:1010A0008CED024A8CED032A9EED062A9EED073A4E
:1010B000029D20EE024A21EE035A21EE021A20EE92
:1010C000030A0A98059A34EE052A31EE400A2946A9
:1010D000042388ED022A88ED030A00F07BFC049CBF
:1010E000009862682946042300F074FC6268019845
:1010F0002946042300F06EFC626803982946042305
:101100000EB0BDEC088B01B0BDE8F04F00F062BC42
:101110002DE9F04381B02DED028B0C460021904665
:10112000B1EB920F054674D04FEA980795ED000A8F
:1011300095ED011A20EE000A21EE011A30EE018A27
:10114000B0EE480A04F0CFF9B4EE400AF1EE10FA1E
:1011500049D684ED000A95ED020A95ED031A20EEBA
:10116000000A21EE011A30EE018AB0EE480A04F0BE
:10117000BAF9B4EE400AF1EE10FA39D684ED010A5C
:1011800095ED040A95ED051A20EE000A21EE011AEC
:1011900030EE018AB0EE480A04F0A5F9B4EE400A38
:1011A000F1EE10FA29D684ED020A95ED060A95EDC6
:1011B000071A20EE000A21EE011A30EE018AB0EE85
:1011C000480A05F1200904F1100604F08CF9B4EE88
:1011D000400AF1EE10FA15D684ED030A013F4D46A0
:1011E0003446A3D113E0B0EE480A04F07CF9B0E72E
:1011F000B0EE480A04F077F9C0E7B0EE480A04F010
:1012000072F9D0E7B0EE480A04F06DF9E4E734462D
:101210004D4618F0030620D095ED000A95ED011A11
:1012200020EE000A21EE011A30EE018AB0EE480AE3
:10123000271D04F058F9B4EE400AF1EE10FA07D673
:1012400084ED000A013E05F108053C46E4D104E0C6
:10125000B0EE480A04F047F9F2E7BDEC028B01B0AA
:10126000BDE8F0839FED221A9FED222A20EE010AAD
:10127000B5EE001A30EE010ABDEEC01A11EE100AEA
:10128000B5EE400AF1EE10FAB8BF013801EE100ACF
:10129000B8EEC11A30EE410A20EE020ABDEEC01AC5
:1012A0009FED152A11EE100A002130EE021AB1EB63
:1012B000502F48F2F4411CBF0020B0EE410AC0F6A6
:1012C000000101EE100A01EB8001B8EE411A30EE88
:1012D000410A91ED001A91ED012AB7EE003A33EE82
:1012E000403A23EE011A20EE020A31EE000A70475E
:1012F00083F9223E00000044000000C42DE9F04FB5
:1013000088B04FEA91094FEA091609EB490706969A
:101310004FEAC906FF00CDE90462161D03EB430244
:101320000797071D4FEA031A4FEAC30B4FEAC20C97
:10133000344632461D460393CDF80090049B17EDCA
:10134000010AFD18069B97ED001A07EB030E079B99
:1013500015ED012A07EB030895ED003A1EED014A51
:101360009EED005A18ED016A98ED007A70EE040ABD
:1013700072EE061A71EE052A73EE073A32EE462A2D
:1013800031EE451A30EEA15A32EEA36A52ED014A0F
:1013900030EE440A92ED004A33EE473A07ED015A27
:1013A00087ED006A30EE035A31EE426A30EEE17AA0
:1013B00072EEE30A30EE430A31EE021A14ED012A0E
:1013C00094ED003A56ED011AD6ED002A65EE023A88
:1013D00026EE022A26EE036A25EE033A27EE245A69
:1013E00064EEA04A60EE840A27EE044A20EE217AD9
:1013F00061EE211A21EE221A20EE220A33EE866ACD
:1014000032EE432A35EE203A34EEC44A37EE011A62
:1014100031EEC00AB9F1010907F1080752445C44F2
:10142000664405ED013A85ED004A0EED016A8EED48
:10143000002A08ED011A88ED000A7FF47FAF142915
:10144000C0F0C180009D01902A4600BF0492039A1B
:10145000AB089200039292B207924FF0FF3202EB78
:101460009502069203EB4302D700DA00EE00141D4A
:101470004FEA031E4FF0000C02464FF000090293A2
:101480009046059A4FEAC90302EBC90090ED000AA5
:10149000181D104490ED001A02EB09104FEA0913D1
:1014A00090ED002A181D104490ED003A09EB490018
:1014B00002EBC003C0000430104493ED004A90EDED
:1014C000005A42464046E04600EB040A00EB0E0B91
:1014D000C31990ED006A1AED017ADBED000AD3ED35
:1014E000001A76EE602A36EE206A77EE610A37EE51
:1014F000217AD0ED011ADAED003ADBED014AD3EDA5
:10150000015A71EEE46A71EEA41A73EEE54A73EEC5
:10151000A53A72EEA45A72EEE42A76EEE04A76EE2E
:10152000A00A76EE476A36EE076A31EEE37A71EE8C
:10153000A31A80ED006AC0ED011A20EE256A61EE63
:10154000241A31EE866A60EE241A61EE253A71EEB5
:10155000E31A62EE263A63EE074A73EEA43A22EEED
:10156000077A63EE264A37EE647A64EE224A65EE25
:10157000205A64EE200A65EE222AA84475EEA44A99
:1015800070EEE20A884530444AED013A8AED007A6D
:101590008BED006ACBED011AC3ED004AC3ED010AE1
:1015A00092D307980CF1010C8144069808328445C7
:1015B0007FF666AF049813284FEA90000246DDE9F3
:1015C00001053FF643AF009990ED000A90ED011A36
:1015D00090ED022A90ED033A90ED044A90ED055A01
:1015E00090ED066A90ED077A70EE040A30EE440A38
:1015F00031EE054A31EE451A32EE065A73EE071AFD
:1016000032EE462A33EE473A30EE856A34EE217ADE
:1016100030EEC55A34EE614A70EE030A71EE421A9A
:1016200030EE430A31EE021A80ED006A80ED017A55
:1016300080ED025A80ED034AC0ED040AC0ED051AA0
:1016400080ED060A80ED071A013900F12000BBD1B8
:1016500008B0BDE8F08F00002DE9F04F88B04FEAE8
:1016600091094FEA091609EB490706964FEAC906A0
:10167000FF00CDE90462161D03EB43020797071D27
:101680004FEA031A4FEAC30B4FEAC20C3446324604
:101690001D460393CDF80090069B17ED011AFD1827
:1016A000049B97ED002A07EB0308079B15ED013A11
:1016B00007EB030E95ED004A18ED015A98ED006A0C
:1016C0001EED017ADEED000A71EE031A75EE072AAF
:1016D00072EE043A76EE204A35EE475A32EE442A4C
:1016E00036EE604A31EEA26A33EEA47A52ED015A28
:1016F00031EE431A92ED003A07ED016A87ED007A68
:1017000031EE446A32EE057A71EEE20A73EEE41AC3
:1017100031EE041A32EE452A14ED014A94ED005AD6
:1017200056ED012AD6ED003A66EE044A27EE044A49
:1017300027EE057A26EE055A20EEA56A65EEA15A37
:1017400061EE831A20EE833A61EE220A62EE222ACB
:1017500022EE232A21EE231A34EEC77A34EE054A0C
:1017600036EE615A35EE833A30EEC22A32EE811AF5
:10177000B9F1010907F1080752445C44664408EDD9
:10178000015A88ED003A05ED017A85ED004A0EED2B
:10179000012A8EED001A7FF47FAF1429C0F0C180BA
:1017A000009D01902A4600BF0492039AAB08920064
:1017B000039292B207924FF0FF3202EB950206922B
:1017C00003EB4302D700DA00EE00141D4FEA031EBC
:1017D0004FF0000C02464FF0000902939046059A24
:1017E0004FEAC90302EBC90090ED001A181D10441E
:1017F00090ED002A02EB09104FEA091390ED003A30
:10180000181D104490ED004A09EB490002EBC0039B
:10181000C0000430104493ED005A90ED006A424637
:101820004046E04600EB040A00EB0E0BC31990EDB6
:10183000007A5AED010ADBED001AD3ED002A77EEAB
:10184000613A37EE217A70EEE21A70EEA20AD0ED1C
:10185000012ADAED004ADBED015AD3ED016A72EE9E
:10186000E57A72EEA52A74EEE65A74EEA64A73EE95
:10187000E56A73EEA53A77EEA15A77EEE11A77EEB4
:10188000607A37EE207A72EEE40A72EEA42A80EDD6
:10189000007AC0ED012A21EE267A62EE252A37EE83
:1018A000627A61EE252A62EE264A72EEA42A63EE7F
:1018B000274A64EE205A74EEE54A63EE200A64EE8D
:1018C000275A75EEA00A65EE235A66EE216A65EE88
:1018D000211A66EE233AA84475EEE65A71EEA31A71
:1018E000884530444AED014ACAED000A8BED007A82
:1018F000CBED012AC3ED005AC3ED011A92D307982C
:101900000CF1010C81440698083284457FF666AFDD
:10191000049813284FEA90000246DDE901053FF6DE
:1019200043AF009990ED001A90ED012A90ED023A34
:1019300090ED034A90ED045A90ED056A90ED067A19
:10194000D0ED070A71EE051A31EE451A32EE065A4D
:1019500032EE462A33EE076A74EE202A33EE473A17
:1019600034EE604A31EE867A75EE220A31EEC66AAE
:1019700035EE625A71EE441A72EE032A31EE041A01
:1019800032EE432A27EE003A20EE804A26EE006A25
:1019900025EE005A21EE807A62EE800A21EE001ACE
:1019A00022EE002A80ED003A80ED014A80ED026AC5
:1019B00080ED035A80ED047AC0ED050A80ED061A29
:1019C00080ED072A013900F12000ABD108B0BDE855
:1019D000F08F00002DE9F04F81B02DED108BA0B0FD
:1019E000DFED04CA00900430CDE902320190CDE968
:1019F0001E1101E0F304353F1F9A4FF0000AD3088F
:101A0000DF00A7EBD200C0001D904FEAC20C03EB31
:101A1000430503EB8302580106931E01019B2C0131
:101A20004FEAC20EED00CDE90C0ECDE90A5600BF1B
:101A30000A9D191803EB05091D9D03EB0E0003EB2E
:101A4000070810ED014A86469A19181903EB050B91
:101A500013ED011A11ED012A18ED013A12ED017A88
:101A600050ED010A59ED011A5BED012A31EE025ADF
:101A700033EE046A77EE203A71EEA24A75EE235AED
:101A800076EE246A75EEA67A43ED017A75EEE65A93
:101A9000D8ED007A9EED008A99ED00BA9BED00CA60
:101AA000D3ED006A41ED015AD1ED005A92ED009A52
:101AB00090ED00AA37EE88EA7BEE0C8A36EEA5DAC6
:101AC00039EE0AFA35EE635A36EE646A7EEE684AFB
:101AD0007DEE0F9A7DEE4F3A35EE24DA35EE645AFC
:101AE0007EEE28AA02ED01DA33EEC6DA00ED015AE5
:101AF00036EE235A31EE421A33EE442A37EE603A7C
:101B000031EEE24A37EEC86A7BEE4C0A79EEAABAA9
:101B100079EEEA9A72EE441A32EE042A36EE604A00
:101B200036EE206AC3ED00BAC1ED009A82ED00DA0C
:101B300080ED005A36EEE55A39EE4A7A61EEAC1A7B
:101B400022EE2C2A24EE2C4A26EE2C6A71EE210A73
:101B500073EE022A75EE043A77EE064A31EE611A08
:101B600033EE422A35EE443A37EE464A264674466C
:101B700070EEA45A70EEE40A31EE045A1F9A1E99D0
:101B800048ED015A73EEE25A4BED010A72EEA30AD8
:101B9000204604ED015A33EE425ADDF834E0C8ED38
:101BA000005ACBED000A84ED005A0C9831EE441A2D
:101BB00034460B9E924409ED011A32EE031A8A450F
:101BC000634489ED001AFFF433AF1F984028C0F03A
:101BD000D4810298009E80B205900698CDE90E4C03
:101BE000C0EBC000C000002401251097049000BF86
:101BF0000598039B044403EBC40191ED000A03EB39
:101C000004128DED1D0A92ED000A04EB440203EB71
:101C1000C2008DED1C0A90ED000A03EB44118DED1E
:101C20001B0A91ED000A04EB8401C80003EBC1011B
:101C30008DED1A0A91ED000A4FEAC20A4FEA021B23
:101C400003EB02128DED190A92ED000AC4EBC402F7
:101C50004FEAC40CD10003EBC2028DED180A92EDDD
:101C6000000A0CF104024FEA041E1A448DED170A13
:101C700092ED000A0EF104021A448DED160A92ED5F
:101C8000000A0AF104024FEA44191A448DED150ABC
:101C900092ED000A09F104021A448DED140A92ED46
:101CA000000A043018448DED130A90ED000A0BF180
:101CB000040018448DED120A90ED000A081D184426
:101CC0000994D0ED006A0796B44608952B46DDE9E5
:101CD0000C54DDE90A76DDF810808DED110A00BFA5
:101CE00010980E990CEB05090CEB000E0CEB0400A0
:101CF0000CEB060B0CEB010A0CEB07020CEB0801DA
:101D0000DCED027A99ED028A9EED029A90ED02AA2C
:101D10009BED02DA9AED02EA92ED02FAD1ED028A27
:101D200037EE88BA39EE0ACA7DEE0E9A7FEE28AAFF
:101D30007BEE29BAF0EE6C3A7CEE2ACA7BEEACDA86
:101D4000CCED02DA7BEEECBADCED03CAD9ED03DAB6
:101D5000DEED03EAD0ED03FA9BED030A9AED031AD8
:101D600092ED032A91ED033A3CEEAD4A3EEEAF5AB6
:101D700030EE016A32EE037A74EE060A75EE071A47
:101D8000DDED1A4ADDED135A70EEA12A70EEE10A7C
:101D9000CCED032A64EEAB1A65EEA02A71EEA21A0E
:101DA00064EEA00A65EEAB2A70EEE20AC9ED021AF3
:101DB000C9ED030A7BEE690A7CEE6A1A34EE464AE4
:101DC00035EE475A9DED1CCADDED154A30EE856AA9
:101DD00034EE617A6CEE062A24EE87BA2CEE077A8E
:101DE00024EE866A30EEC55A31EE844ADDED180ADB
:101DF000DDED111A37EE466A8BED036A20EE856A37
:101E000021EE847A20EE844A21EE855A37EE066A66
:101E100034EE454A39EE4A5A3FEE687A7EEEEF1AC2
:101E200030EE410A32EE431A7BEE222A35EE472A83
:101E300035EE073A31EEC15A31EE811ACBED022A66
:101E40008AED026A8AED034A37EEC84A3DEE4E6AD1
:101E50007CEEED0A22EE232A23EE233A25EE235AC6
:101E600021EE231AF0EE63CA34EE027A76EE031AFC
:101E700070EE852A70EE017ADDED1D3ADDED164A31
:101E800037EE278A32EEE19A23EE88AA24EE89BA49
:101E900023EE899ADDED173A37EE677A71EEA21AD2
:101EA00063EE872A66EEA17A63EEA11A26EE877AA0
:101EB00024EE888A31EEC77A34EE422A36EE433A6F
:101EC00030EEC54A30EE410ADDED190ADDED121A99
:101ED00039EE488A32EE001A34EE435A8EED038A08
:101EE00081ED037A20EE816A21EE857A20EE855A13
:101EF00021EE811A3AEE0BAA72EEA72A36EE076A95
:101F000035EE411A8EED02AAC1ED022A80ED026A79
:101F100080ED031A1F9833EE041A03441E989DEDBA
:101F20001B4A9DED145A32EE400A83420F9824EE6C
:101F3000002A25EE013A24EE011A25EE000A32EEBF
:101F4000032A31EE400A844482ED022A82ED030A1C
:101F5000FFF4C6AE089D0698079E0135099C854290
:101F600006F10806FFF444AE0298C00002901F98E4
:101F70003F2806981F903FF63FAD20B0BDEC108B78
:101F800001B0BDE8F08F00004A494A6822F44032AF
:101F90004A604A6843681A434A6001684A6822F402
:101FA00080724A6001684A68036942EA03224A6013
:101FB00001684A6822F040724A6001684A68836892
:101FC0001A434A6001688A6822F400628A600168E4
:101FD0008A68C3681A438A60816A6FF07062D1426E
:101FE00014D001688A6822F070628A6001688A6889
:101FF000836A1A438A6001688A6822F040528A60C4
:1020000001688A68C36A1A438A6009E001688A68BD
:1020100022F070628A6001688A6822F040528A6009
:1020200001688A6822F002028A6001688A68037E79
:1020300042EA43028A6090F8201089B101684A6838
:1020400042F400624A6001684A6822F460424A60D1
:1020500001684A68436A5B1E42EA43324A6004E010
:1020600001684A6822F400624A600168CA6A22F480
:102070007002CA620168CA6A838B5B1E42EA03521D
:10208000CA6201688A6822F400728A6001688A68FC
:1020900090F8303042EA43228A6001688A6822F46C
:1020A00080628A6001688A68406942EA80208860AC
:1020B00070470000002301400246906B016C11F054
:1020C000500F03D0806BC16C10460847016C41F47F
:1020D0000071016401688A6812F0405F19D1027EC4
:1020E000BAB9CA6A12F4700F03D08A6812F4806F0A
:1020F0000FD14A6822F020024A60016C21F48071FD
:102100000164016C11F4805F03D1016C41F00101A5
:10211000016400F0FDBB806B40210164416C41F023
:102120000401416400F0F6BB806B00F0F2BB4FF09D
:10213000C841012806D0022803D1488820F0800039
:1021400048807047488820F02000F9E74FF0C841E8
:10215000012806D0022803D1488840F0800048803A
:102160007047488840F02000F9E74FF0C841012847
:1021700006D0022803D1488820F0400048807047EC
:10218000488820F01000F9E74FF0C841012808D036
:1021900002280AD0032803D1488840F05000488024
:1021A0007047488840F01000F9E7488840F0400048
:1021B000F5E74FF0C841012808D002280AD00328CB
:1021C00003D1488840F00C0048807047488840F0B0
:1021D0000400F9E7488840F00800F5E7FEE74FF013
:1021E000C84100204880704770B52DED048B00F089
:1021F00070F82F4D9FED2F8ADFED2F8A95ED000AA5
:102200009FED2E9A4FF0C84460EE080A80EEA80AAF
:1022100020EE090ABCEEC00A10EE100A010CA180E3
:10222000E080A888A083E8884FF4B476B0FBF6F18C
:1022300006FB110000EE100ADFED219AB8EE400A0D
:1022400020EE290A03F002F9BCEEC00A10EE100AD3
:10225000A08295ED030A20EE080AC0EE280A20EEBF
:10226000890ABCEEC00A10EE100A010C21816081BF
:10227000288AE083688AB0FBF6F106FB110000EEC5
:10228000100AB8EE400A20EE290A03F0DFF8BCEE8F
:10229000C00A10EE100AE082287A297D40EA012067
:1022A0002083BDEC048BBDE8704000F00BB800004B
:1022B000403300200000804F180D0F4D0000804477
:1022C000190436404FF0C840418841F00101418077
:1022D00070474FF0C840418821F0010141807047AC
:1022E00010B5DFED0C0A00234FF47A74B4222146B6
:1022F000B0EE600A184600F00FF800231A46214697
:10230000B0EE600A012000F007F8BDE81040FFF7CA
:102310006BBF000000409C4610B5022809D200EBBC
:102320004004044800EB840080ED000A8180C280F4
:10233000037210BD4033002010B5034800F0E6FCE6
:1023400002490120087010BD68010020980000209B
:1023500001680A4BCAB2103AA3FB02321209084BB9
:102360009B5CC365032A04D96FF30901091D8165CC
:1023700002E06FF309018165806D7047ABAAAAAADC
:10238000B46E0008014600208A6A8B69002B0FD0CA
:10239000B3F5005F1DD08AB3012A30D0022A2ED0B7
:1023A000032A04D1C96A11F0807F00D00120704750
:1023B0001AB1012A07D0022AF9D1C96A11F0807F27
:1023C000F5D001207047C96AB1F1C07FFAD1012070
:1023D00070475AB1012A0BD0022A07D0032AF7D13D
:1023E000C96AB1F1C07FF3D1012070470120704765
:1023F000C96A11F0807FFAD001207047FFE7012001
:10240000704710B4D0F800C0DCF8004024F48024F9
:10241000CCF80040D0F800C0CCF804308368402BE2
:1024200005D0036899600068C26010BC70470368FB
:102430009A600068C16010BC7047704772B6FEE7D2
:1024400030B4B3F5804F06D06FF0704140F82210E1
:1024500030BC0020704750F82230DFF82CC003EA6F
:102460000C03D1F800C04C688D894CEA041C8C68C0
:102470008969240244EA05444CEA040C4CEA01014F
:10248000194340F82210E3E70000F0CF70B4D1F810
:1024900000C050F82C20184B1A404C688B680E690D
:1024A000CD681C4335432C434D692C438D692C4327
:1024B000CD692C430D6A2C434D6A2C438D6A2C4305
:1024C000CD6A2C43CD6B2C430D6B2C434D6B2C43B1
:1024D0002243082B01D142F0400240F82C204A6BE5
:1024E000B2F5801F05D1096819B1016841F4801166
:1024F000016070BC002070478000E0FF30B4521CC7
:1025000050F8223003F04043D1F800C04C688D8968
:102510004CEA041C8C68240244EA05444CEA040C8E
:102520000C8A641E4CEA045C0C7DA41E4CEA046C0C
:102530008C694CEA040C4CEA030340F82230026830
:1025400012F4801F07D0426822F47002098A491EE3
:1025500042EA0151416030BC00207047034610B58B
:1025600003209FED0B0A02460DE000BF03EB82043F
:10257000D4ED000AF4EEC00AF1EE10FA02DDB0EE7E
:10258000600A1046521CB2EB510FEFD310BD000091
:102590000000000090F83C20012A24D0012280F89D
:1025A0003C20124A536823F01F0353605368D1F84C
:1025B00000C043EA0C035360536823F44043536064
:1025C0005368D1F804C043EA0C035360536823F402
:1025D000706353605368896819435160002180F823
:1025E0003C1000207047022070470000002301408B
:1025F00038B504460023009394F83C00012809D024
:10260000012084F83C002068D0F808C01CF0010FBD
:1026100002D018E0022038BDD0F808C04CF0010C00
:10262000C0F808C03748DFF8E0C00068B0FBFCF035
:1026300000EB40000090009828B10098401E0090E8
:1026400000980028F9D12068D0F808C01CF0010FCC
:102650004ED0D4F840C02CF0010C2CF4C06C4CF4DB
:10266000807CC4F840C0406810F4806F05D0206CB6
:1026700020F4005040F480502064206C10F4805FFF
:1026800004D0606C20F00600606400E0636484F8AD
:102690003C30A36B1D48D863A36B1D481864A36B23
:1026A0001C48D86423686FF00200186020684368F3
:1026B00043F080634360184894F8303023B1436896
:1026C00043F40053436003E0436823F40053436042
:1026D00013460A461149A06B00F084FC206881680B
:1026E00011F0405F0CD1816841F08041816007E0CA
:1026F000206C40F010002064606C40F001006064C9
:10270000002038BDD000002040420F00B920000852
:102710002921000817210008002301400823014057
:1027200010B50446002194F83C0001280ED0012089
:1027300084F83C002068826822F001028260104820
:102740002268926812F0010F02D014E0022010BD3E
:10275000416821F400514160A06B00F073FA01461A
:102760002068426822F080624260206C20F4885029
:1027700040F001002064002084F83C00084610BDB1
:102780000023014038B44FF0000CCDF800C090F8A1
:102790003C20012A1BD0012280F83C200A68072433
:1027A000092A17D90368DD680A3A02EB420204FAE3
:1027B00002F225EA0202DA600A788B680A3A02EB32
:1027C000420293400268D4682343D36014E038BCCB
:1027D0000220704703681D6902EB420204FA02F20C
:1027E00025EA02021A610A788B6802EB42029340E2
:1027F00002681469234313614A681F24072A15D20B
:1028000003685D6B521E02EB820204FA02F225EAB3
:1028100002025A630A8893B20A79521E02EB8202BC
:1028200093400268546B234353632CE00D2A15D266
:1028300003681D6BD21F02EB820204FA02F225EA42
:1028400002021A630A8893B20A79D21F02EB82024B
:1028500093400268146B2343136314E00368DD6A3A
:102860000D3A02EB820204FA02F225EA0202DA626F
:102870000A8893B20A790D3A02EB82029340026809
:10288000D46A2343D3621D4A1D4B04689C420AD17B
:102890000C68122C07D1546824F400045460546866
:1028A00044F48004546004689C4221D1154C0B68A8
:1028B000A34201D0112B1BD1536823F48003536032
:1028C000536843F4000353600968A14210D10E49D4
:1028D0000E4A0968B1FBF2F101EB81014900009158
:1028E000009929B10099491E009100990029F9D158
:1028F00080F83CC038BC0020704700000023014035
:102900000020014012000010D000002040420F00C3
:1029100070477047704770B504460025002C03D0FF
:10292000206C002610B107E0012070BD204600F0A9
:102930001DF8666484F83C60206C10F0100F04D021
:10294000012584F83C60284670BD206C20F4885036
:1029500040F0020020642046FFF716FB6664206CFE
:1029600020F0020040F001002064EAE7F0B587B0F3
:10297000064614216846FDF77FFC2B49294F346831
:102980000025294814390322284BBC422FD1046862
:1029900044F480740460006800F480700590086856
:1029A00040F0010008600868694600F001000590E9
:1029B00001208DE82500184600F0B2FB1D4C1C4894
:1029C000C4E900050015A560C4E9035080006061FA
:1029D0008000C4E9060525622046656200F08CFA95
:1029E00008B1FFF72BFDB463A66307B0F0BD124E2C
:1029F000B442FAD1046844F400740460006800F43E
:102A000000700590086840F0010008600868694699
:102A100000F00100059002208DE82500184600F026
:102A20007FFBE2E700200140443802400000024002
:102A300010640240680100200021014081B00022A2
:102A4000009290F83C10012908D0012180F83C1038
:102A500001688B6813F0010F03D016E0022001B06B
:102A600070478B6843F001038B603949394B096823
:102A7000B1FBF3F101EB41010091009929B10099FB
:102A8000491E009100990029F9D101688B6813F063
:102A9000010F52D0036C23F0010323F4C06343F40D
:102AA000807303644B6813F4806F05D0036C23F4C8
:102AB000005343F480530364036C13F4805F04D029
:102AC000436C23F00603436400E0426480F83C203A
:102AD000214A6FF022030B60516811F01F0F1F494C
:102AE00007D00068884230D1816811F0405F1FD064
:102AF0002BE00068884212D0194A904204D1D1F8E4
:102B0000042312F01F0F0AD0A0F18042B2F59132D7
:102B10001BD1D1F8041301F01F01102915D28168CF
:102B200011F0405F11D1816841F0804181600CE07B
:102B3000816841F08041816007E0016C41F0100143
:102B40000164416C41F001014164002001B0704713
:102B5000D000002040420F0000230140002001402F
:102B60000021014030B44379012B23D0012444716A
:102B7000022303710368D3F800C002F0100240F68C
:102B8000FE7595402CEA050C0D6849682943914073
:102B900041EA0C01196001680B684FF0C00C0CFA97
:102BA00002F223EA02020A6004710021417130BC82
:102BB0000020704730BC0220704770B50446002CDE
:102BC00003D02079002510B105E0012070BD6571AA
:102BD000204600F007F802202071256101202071B5
:102BE000002070BD10B586B0044614216846FDF77C
:102BF00043FB1149206888421CD11048002102681B
:102C000042F000520260006800F0005005900B484E
:102C10001038026842F001020260006800F0010012
:102C20000590302000900320CDE901016946044859
:102C300000F076FA06B010BD007400404038024043
:102C4000000002402DE9F0410446A66D00F09CFB17
:102C5000054694F835000027022806D080206065DC
:102C600084F834700120BDE8F0812068016821F00B
:102C7000160101602068416921F080014161206CEA
:102C800008B9A06C20B12068016821F0080101603A
:102C90002068016821F0010101602068006810F0DF
:102CA000010F12D000F070FB401B052808D920202E
:102CB0006065032084F8350084F83470BDE8F08145
:102CC0002068006810F0010FECD194F85C003F21FF
:102CD00001FA00F0B060012084F8350084F8347007
:102CE0000020BDE8F08190F83510022903D0802142
:102CF000416501207047052180F8351000680168A2
:102D000021F0010101600020704700002DE9F84327
:102D100004464FF00008CDF8008076484FF4165175
:102D20000068B0FBF1F7A56D2E6894F85C000821EF
:102D300001FA00F0304211D02068026812F0040F4E
:102D40000CD0026822F00402026094F85C0001FAE0
:102D500000F0A860606D40F00100606594F85C00D0
:102D60004FF0010909FA00F0304209D021684969A1
:102D700011F0800F04D0A860606D40F00200606523
:102D800094F85C1004208840304209D0216809681A
:102D900011F0020F04D0A860606D40F0040060657F
:102DA00094F85C1010208840304224D021680968D3
:102DB00011F0080F1FD0A8602068016811F4802F5F
:102DC0000DD0006810F4002F04D0A16C99B12046FA
:102DD000884710E0216C71B1204688470BE00168FC
:102DE00011F4807F03D1016821F008010160216C9A
:102DF00009B12046884794F85C1020208840304272
:102E000051D02168096811F0100F4CD0A86094F8D7
:102E1000350005280DD02068016811F4802F32D0CC
:102E2000006810F4002F29D0E16B59B32046884781
:102E300039E02068016821F01601016020684169CD
:102E400021F080014161206C08B9A06C20B120689C
:102E5000016821F00801016094F85C003F2101FA4B
:102E600000F0A86084F8359084F83480216D002942
:102E70003ED001B02046BDE8F0430847616C09B17F
:102E8000204688470FE0016811F4807F07D1016870
:102E900021F01001016084F8359084F83480E16BF2
:102EA00009B120468847606D002821D0606D10F080
:102EB000010F15D0052084F835002068016821F045
:102EC000010101600098401C0090B84204D82068BD
:102ED000006810F0010FF5D184F8359084F8348043
:102EE000E16C002904D001B02046BDE8F04308475A
:102EF000BDE8F883D00000202DE9F041044600F041
:102F000043FA0546DCB1022084F83500002684F837
:102F100034602068016821F00101016020680068C8
:102F200010F0010F13D000F02FFA401B052809D92B
:102F300020206065032084F83500BDE8F081012081
:102F4000BDE8F0812068006810F0010FEBD1216826
:102F50000868234A1040A3686268D4F810C01A4376
:102F6000E36843EA0C031A4363691A43A3691A43EB
:102F7000E3691A43236A1A431043626A042A03D19D
:102F8000236BE26A1A43104308602068406920F00E
:102F90000701606A40EA0105012704280ED1A06AF2
:102FA0000543E06A50B12046FFF7ECF930B140200C
:102FB000606584F835700120BDE8F08120684561C6
:102FC0002046FFF7C5F994F85C103F2202FA01F1A0
:102FD0008160666584F835700020BDE8F0810000EE
:102FE0003F8010F070B504460025A66D94F83400BB
:102FF00001280DD0012084F8340094F835C0002059
:10300000BCF1010F06D084F834000225284670BDBB
:10301000022070BD4FF0020C84F835C06065204678
:10302000FFF7EFF994F85C003F2101FA00F0B0607F
:103030002068016841F016010160206C20B1206811
:10304000016841F0080101602068016841F0010158
:103050000160DBE770B5044600F096F90546B4F16F
:10306000FF3F02D004480078044400F08DF9401B73
:10307000A042FAD370BD0000C4000020F0B587B0B4
:1030800014216846FDF7F8F81F480168002938D177
:10309000012101601D480024016841F00101016027
:1030A0000068022500F0010005904FF68070CDE920
:1030B000000502AA03260C2782E8D00069461448BE
:1030C00000F02EF84CF23370CDE9000502AA6946F3
:1030D00082E8D0000F4800F023F82802CDE900056F
:1030E00002AA694682E8D0000B4800F019F8802057
:1030F000CDE9000502AA694682E8D000074800F041
:103100000FF807B0F0BD0000000000203838024082
:1031100000100240000C024000180240000402406F
:103120002DE9F84F0022DFF82C92DFF82CE2DFF8CF
:103130002CA24FF0010B03274FF00F080BFA02FCF3
:103140000B6803EA0C0363457AD10C7904F003049D
:10315000012C01D0022C14D18568540007FA04F622
:10316000B543CE6806FA04F42C438460446824EA2C
:103170000C0C0C79C4F30014944044EA0C0CC0F815
:1031800004C0D1F804C037EA0C0C0CD0C4684FEA74
:10319000420C07FA0CF5AC438D6805FA0CFC4CEABE
:1031A000040CC0F80CC091F804C00CF0030CBCF186
:1031B000020F12D14FEAD20C00EB8C04256A4FEAC1
:1031C000427C4FEADC6C08FA0CF6B5430E6906FA4D
:1031D0000CFC4CEA050CC4F820C004684FEA420C11
:1031E00007FA0CF5AC430D7905F0030505FA0CFC64
:1031F0004CEA040CC0F800C0D1F804C01CF4403FF5
:103200001ED0D9F800C04CF4804CC9F800C0D9F8E1
:1032100000C00CF4804CCDF800C022F0030C0CF17F
:10322000804505F59835D5F808C89407240F08FAA5
:1032300004F62CEA0606704503D14FF0000C2FE08F
:1032400067E0A0F1804CBCF5013C68D0A0F1804C57
:10325000BCF5023C66D0A0F1804CBCF5033C64D0C8
:10326000A0F1804CBCF5043C62D0A0F1804CBCF5D0
:10327000053C60D0A0F1804CBCF5063C5ED0A0F1CE
:10328000804CBCF5073C5CD0A0F1804CBCF5083C00
:103290005AD0A0F1804CBCF5093C58D04FF00A0C34
:1032A0000CFA04FC4CEA060CC5F808C8DAF800C0B1
:1032B0002CEA030C4C6814F4803F01D04CEA030C58
:1032C000CAF800C0264CD4F800C02CEA030C4D68A4
:1032D00015F4003F01D04CEA030CC4F800C0214CA7
:1032E000D4F800C02CEA030C4D6815F4801F01D0FF
:1032F0004CEA030CC4F800C01B4CD4F800C02CEA04
:10330000030C4D6815F4001F01D04CEA030CC4F8FF
:1033100000C0521C102AFFF411AFBDE8F88F4FF027
:10332000010CBDE74FF0020CBAE74FF0030CB7E712
:103330004FF0040CB4E74FF0050CB1E74FF0060C6A
:10334000AEE74FF0070CABE74FF0080CA8E74FF0E3
:10335000090CA5E74438024000000240003C01404F
:10336000043C0140083C01400C3C0140006908421B
:1033700001D00120704700207047002A01D08161F0
:1033800070470904816170470148806870470000F8
:10339000C4000020024881680278114481607047AF
:1033A000C400002010B50B48016841F400710160B1
:1033B000016841F480610160016841F4807101603D
:1033C000032000F085F80F2000F006F800F026F842
:1033D000002010BD003C024070B504460D4D4FF476
:1033E0007A712878B1FBF0F00B490968B1FBF0F075
:1033F00000F062FC08B1012070BD102C07D2002241
:103400002146501E00F030F86C60002070BD012095
:1034100070BD0000C4000020D00000200A4808B59C
:10342000016841F480410160006800F48040009030
:103430000548001F016841F080510160006800F0FC
:103440008050009008BD00004438024000280ADB8C
:1034500000F01F01012202FA01F14009800000F191
:10346000E020C0F80011704710B4184B1B68C3F37C
:103470000223C3F1070CBCF1040F01D94FF0040C77
:103480001C1D072C01D2002300E0DB1E012404FADE
:103490000CFCACF1010C0CEA0101994004FA03F3B5
:1034A0005B1E1A401143002806DB00F1E0200901F1
:1034B00080F8001410BC704700F00F0000F1E0200D
:1034C000090180F8141D10BC704700000CED00E0ED
:1034D00000F00700064A11684FF6FF03194041EA61
:1034E000002040F0FD7040F08060106070470000E8
:1034F0000CED00E0F8B51B48016841F08051016017
:10350000006800F080500090174F01263E64FFF7DE
:103510003BFF0546154C606810F4803F0BD1FFF768
:1035200033FF401BB0F57A7F01D90320F8BD6068F6
:1035300010F4803FF3D07E64FFF726FF05466068F5
:1035400010F4003F0BD1FFF71FFF401BB0F57A7F4F
:1035500001D90320F8BD606810F4003FF3D00020CB
:10356000F8BD00004038024000000E4200700040EC
:10357000704700002DE9F04704460D46002C13D09B
:10358000DFF85491D9F80000EFB200F00F00A84224
:103590000DD289F80070D9F8000000F00F00A842A1
:1035A00005D00120BDE8F0870120BDE8F087206844
:1035B0004A4E10F0020F14D010F0040F03D0306800
:1035C00040F4E0503060207810F0080F03D03068ED
:1035D00040F4604030603068A16820F0F00008439B
:1035E0003060207810F0010F3ED060683C4901281F
:1035F00008D002280DD003280BD0096811F0020F63
:1036000028D00AE0096811F4003F06D10120BDE886
:10361000F087096811F0007F19D0316821F00301AB
:1036200008433060FFF7B0FE80463068616800F004
:103630000C00B0EB810F17D041F2883AFFF7A4FEDF
:10364000A0EB0800504508D90320BDE8F087012011
:10365000BDE8F0870120BDE8F0873068616800F0C0
:103660000C00B0EB810FE9D1D9F8000000F00F0099
:10367000A8420AD989F80070D9F8000000F00F00BC
:10368000A84202D00120BDE8F087207810F0040F96
:1036900005D03068E16820F4E050084330602078BD
:1036A00010F0080F06D03068216920F4604040EA2D
:1036B000C100306000F048F831680A4AC1F30311D4
:1036C000515CC8400849086008480068FFF784FE5C
:1036D0000020BDE8F0870000003C024008380240AE
:1036E00000380240BC6E0008D0000020C800002056
:1036F00001490120C8647047000047420148006842
:1037000070470000D000002000B5FFF7F7FF044924
:103710000968044AC1F38221515CC84000BD000021
:1037200008380240CC6E000800B5FFF7E7FF0449F7
:103730000968044AC1F34231515CC84000BD000031
:1037400008380240CC6E000810B51748006810F029
:103750000C01164816D0164B042912D0082911D195
:10376000144C216801F03F02216811F4800F0AD047
:103770002068C0F38810A0FB03010023FCF732FD92
:1037800009E0184610BD21680023C1F38811A1FB90
:103790000001FCF727FD2168C1F30141491C4900E4
:1037A000B0FBF1F010BD0000083802400024F40026
:1037B00040787D010438024010B50548006810F0DB
:1037C000800F04D0FFF7D4FE02498020087010BD9E
:1037D0000C3802400E3802402DE9F84F0446002C08
:1037E00012D02078FB4E10F0010FA6F1040563D033
:1037F000301D016801F00C0104290CD0006800F0B4
:103800000C00082803D010E00120BDE8F88F3068D4
:1038100010F4800F09D0286810F4003F4CD0606885
:10382000002849D10120BDE8F88F6068B0F5803FDD
:1038300014D0B0F5A02F16D0286820F4803028606E
:10384000286820F480202860606810B3FFF79CFD92
:103850000746286810F4003F0ED02DE0286840F499
:1038600080302860F0E7286840F4802028602868CD
:1038700040F480302860E7E7FFF786FDC01B64282E
:1038800002D90320BDE8F88F286810F4003FF3D078
:1038900012E0FFF779FD0746286810F4003F0BD0CF
:1038A000FFF772FDC01B642802D90320BDE8F88F22
:1038B000286810F4003FF3D12078C74F10F0020FB2
:1038C0004FF0000957D0C548016811F00C0F14D013
:1038D000006800F00C00082803D1306810F4800F55
:1038E0000BD0E06880B301203860FFF74DFD8046C3
:1038F000286810F0020F12D01EE0286810F0020FA6
:1039000005D0E068012802D00120BDE8F88F2868C2
:10391000216920F0F80040EAC10028602BE0FFF7A1
:1039200033FDA0EB0800022802D90320BDE8F88F80
:10393000286810F0020FF2D02868216920F0F80002
:1039400040EAC100286016E0FFE7C7F80090FFF7E3
:103950001BFD8046286810F0020F0CD0FFF714FD05
:10396000A0EB0800022802D90320BDE8F88F2868E0
:1039700010F0020FF2D1207810F0080F35D09848DF
:10398000DFF860A26169C1B101210160FFF7FCFCB1
:103990008046DAF8000010F0020F26D1FFF7F4FCA1
:1039A000A0EB0800022802D90320BDE8F88FDAF85E
:1039B000000010F0020FF1D017E0C0F80090FFF700
:1039C000E3FC8046DAF8000010F0020F0DD0FFF79C
:1039D000DBFCA0EB0800022802D90320BDE8F88F29
:1039E000DAF8000010F0020FF1D1207810F0040F87
:1039F00071D04FF000087C48006810F0805F0AD159
:103A00007948016841F080510160006800F0805001
:103A100000904FF00108DFF8D4B1DBF8000010F49B
:103A2000807F1BD1DBF8000040F48070CBF80000F1
:103A3000FFF7AAFC8246DBF8000010F4807F0DD16E
:103A4000FFF7A2FCA0EB0A00022802D90320BDE880
:103A5000F88FDBF8000010F4807FF1D0A068DFF869
:103A600090B1012818D005281DD0DBF8000020F007
:103A70000100CBF80000DBF8000020F00400CBF8D8
:103A80000000A06840B3FFF77FFC8246DBF800002F
:103A900010F0020F14D03EE0DBF8000040F001000F
:103AA000CBF80000EDE7DBF8000040F00400CBF8B5
:103AB0000000DBF8000040F00100CBF80000E0E778
:103AC000FFF762FCA0EB0A0141F28830814204D981
:103AD0000320BDE8F88F26E005E0DBF8000010F0D9
:103AE000020FEDD017E0FFF74FFC8246DBF8000035
:103AF00010F0020F0FD0FFF747FCA0EB0A0141F2D4
:103B00008830814202D90320BDE8F88FDBF800003D
:103B100010F0020FEFD1B8F1010F04D13248016863
:103B200021F080510160A069F0B32C4909684FF081
:103B3000FF3801F00C01082966D0022810D0C7F820
:103B40006090FFF721FC0446286810F0007F2BD01E
:103B5000FFF71AFC001B022851D90320BDE8F88F9B
:103B6000C7F86090FFF710FC8146286810F0007FCE
:103B70000CD0FFF709FCA0EB0900022802D90320B2
:103B8000BDE8F88F286810F0007FF2D1216AE06963
:103B9000A26A0843616A08EB5202890141EA0241C4
:103BA000084394F82C1000E055E040EA01603060D2
:103BB00001203866FFF7E8FB0446286810F0007F14
:103BC00049D1FFF7E1FB001B022813D90320BDE810
:103BD000F88F0000043802400000474208380240D5
:103BE000800E474274380240403802400070004066
:103BF00070380240286810F0007FE2D02BE028687F
:103C000010F0007FA4D126E0012822D03068E269BC
:103C100000F4800191421AD1226A00F03F019142E2
:103C200015D147F6C071626A0140B1EB821F0ED117
:103C3000A26A00F4403108EB5202B1EB024F06D108
:103C400094F82C1000F07060B0EB016F03D00120ED
:103C5000BDE70120BBE70020B9E770B504460E467A
:103C60001546002C03D094F8490010B107E001205C
:103C700070BD002084F84800204600F01AF804F1D6
:103C800008012068FEF702FC3146A2682068FEF7B2
:103C900035FC2946236BA2686068FEF7D1FBA1685A
:103CA000206850F8212042F0010240F82120002035
:103CB00070BDFFF7E3B90000401EB0F1807F01D373
:103CC000012070474FF0E0214861044AF020107055
:103CD00000208861072008610020704723ED00E084
:103CE00030B490F83C20012A44D0012480F83C40B4
:103CF000022280F83D200268D2F804C093682CF0BC
:103D0000700C0D6845EA0C0CC2F804C00268A2F100
:103D1000804CBCF5803C20D0B2F1804F1DD0A2F188
:103D2000804CBCF5806C18D0A2F1804CBCF5006CC6
:103D300013D0A2F1804CBCF5406C0ED0A2F1804CA7
:103D4000BCF5823C09D0A2F1804CBCF5A03C04D06B
:103D5000A2F1804CBCF5C05C04D123F0800349681B
:103D60001943916080F83D40002180F83C1030BC40
:103D70000020704730BC0220704710B50446002C6C
:103D800003D094F83D0010B107E0012010BD0020E1
:103D900084F83C00204600F01FF8022084F83D0023
:103DA000211D206800F058FF012084F8460084F8A7
:103DB0003E0084F83F0084F8400084F8410084F815
:103DC000420084F8430084F8440084F8450084F8F5
:103DD0003D00002010BD000008B50068B0F1804F24
:103DE00008D10548016841F001010160006800F058
:103DF0000100009008BD00004038024090F83D10DE
:103E0000012901D001207047022180F83D1000688F
:103E1000A0F18041B1F5803126D0B0F1804F23D0A0
:103E2000A0F18041B1F580611ED0A0F18041B1F5D3
:103E3000006119D0A0F18041B1F5406114D0A0F12A
:103E40008041B1F582310FD0A0F18041B1F5A031B0
:103E50000AD0A0F18041B1F5C05105D0016841F010
:103E60000101016000207047816801F00701062907
:103E7000F8D0016841F001010160F3E701680A6AC6
:103E800041F211131A4207D10A6A9B101A4203D158
:103E90000A6822F001020A60012180F83D1000202A
:103EA000704770B50446002594F83C00012818D0EE
:103EB000012684F83C60022084F83D002068826876
:103EC00022F0770222F47F4282600868502839D0BD
:103ED0000EDC202854D006DC002851D0102811D147
:103EE0004EE0022070BD30284AD040280AD13DE083
:103EF000602831D070280DD0B0F5805F03D0B0F5C8
:103F0000005F13D0012584F83D60002084F83C0058
:103F1000284670BDCB684A688968206800F002FFB7
:103F20002068816841F077018160ECE7CB684A68DE
:103F30008968206800F0F6FE2068816841F48041BD
:103F40008160E0E7CA684968206800F0FEFE502101
:103F5000206800F0F2FED6E7CA684968206800F0E1
:103F600007FF6021206800F0E8FECCE7CA684968D6
:103F7000206800F0EAFE4021206800F0DEFEC2E783
:103F800022680146104600F0D8FEBCE77047704733
:103F9000F8B5044622681068D168536900F00F0C28
:103FA000BCF1000F0AD110F0200F07D011F0200F44
:103FB00004D02046BDE8F84000F028BF0025BCF141
:103FC000000F75D003F0010C01F490765CEA060650
:103FD0006ED010F0010F06D011F4807F03D0226C58
:103FE00042F00102226410F0040F06D013F0010F1A
:103FF00003D0226C42F00202226410F0020F06D0BD
:1040000013F0010F03D0226C42F00402226410F07E
:10401000080F08D001F0200252EA0C0203D0226CF3
:1040200042F008022264226C002A35D010F0200FE2
:1040300005D011F0200F02D0204600F0E7FE2068E6
:104040004069C0F38010216C11F0080F00D148B313
:10405000204600F0A7FE2068406910F0400F1CD0F9
:104060002068143050E8001F21F0400140E80012A1
:10407000002AF5D1A06B60B15C490165A06BFEF729
:1040800032FE002808D0A06B016D01B0BDE8F04001
:1040900008472046FFF77BFFF8BD2046FFF777FF74
:1040A000F8BD05E0FFE72046FFF771FF2564F8BD86
:1040B000236B012B7ED110F0100F7BD011F0100F6D
:1040C0007ED010685068009050694FF0200310F0C7
:1040D000400F43D0A16B0868406880B20028E6D04A
:1040E000A28D8242E3D9E085C869B0F5807F2DD0EA
:1040F00020680C3050E8001F21F4807140E8001265
:10410000002AF5D12068143050E8001F21F0010189
:1041100040E80012002AF5D12068143050E8001F52
:1041200021F0400140E80012002AF5D184F83E3029
:10413000256320680C3050E8001F21F0100140E892
:104140000012002AF5D1A06BFEF77CFDA08DE18D59
:10415000401A81B22046FFF719FFF8BDA08DE18D0E
:10416000401A81B2E08D0028F7D00029F5D02068F0
:104170000C3050E8002F22F4907240E8002CBCF183
:10418000000FF4D12068143050E8002F22F0010213
:1041900040E8002CBCF1000FF4D184F83E302563D8
:1041A00020680C3050E8002F22F0100240E8002375
:1041B000002B00E004E0F3D12046FFF7E7FEF8BD56
:1041C00010F0800F07D011F0800F04D02046BDE81A
:1041D000F84000F018BF10F0400FF0D011F0400F81
:1041E000EDD02046BDE8F84000F003BE954D000834
:1041F00070B50446002C04D094F83D00002510B1A1
:1042000006E0012070BD84F83C50204600F022F802
:10421000242084F83D002068C16821F40051C16069
:10422000204600F057FE2068016921F490410161A9
:104230002068416921F02A0141612068C16841F488
:104240000051C1602564202084F83D0084F83E00C0
:10425000002070BDF0B587B0044614216846FCF715
:104260000BF83D4B276800223C4902240325072612
:104270003B489F4221D1394B14331F6847F0100748
:104280001F601B6803F0100305930B6843F00103E4
:104290000B60096802AB01F0010105916902CDE9EB
:1042A000001483E864006946FEF73AFF00221146D5
:1042B0002520FFF7D9F8252024E0284BDFF8A4C0FB
:1042C0001033674522D11F6847F400371F601B6811
:1042D00003F4003305930B6843F001030B60096896
:1042E00002AF01F0010105910C21CDE9001487E82E
:1042F00064006946FEF714FF002211462620FFF7EE
:10430000B3F82620FFF7A2F807B0F0BD16488742A1
:10431000FAD1186840F480201860186800F48020F2
:104320000590086840F002000860086802AF00F0DD
:10433000020005904FF44060CDE9000487E8640076
:1043400069460A48FEF7ECFE002211462720FFF7D7
:104350008BF82720D6E700000010014030380240DB
:1043600000000240004400400048004000040240B9
:1043700090F83E30202B01D00220704759B152B145
:1043800090F83C30012B08D0012380F83C3000230A
:10439000036300F01DBE012070470220704700003B
:1043A0002DE9F041594C5A49074622462079D278E6
:1043B0000B68122820D0112822D056490025012848
:1043C0002AD00126022829D0534A544B03281178B9
:1043D00026D0042826D0524A052811882BD006283A
:1043E0002BD0504A3968914242D121897F2938D255
:1043F0004D4A0A2828D02DE06433143A0B6002E0BD
:10440000643B14320B60D1B2E17048A019E03F491F
:104410000122091D464868E00D70F8E70E70F6E7C6
:10442000491E00E0491CC8B21070642110FB01F164
:1044300040A0196005E01E3100E01E3989B21180EC
:104440003DA000F0EBF8E2E7531813F801CCBCF103
:104450000D0F03D05054491C218103E0267003F84E
:10446000015C258129490122091D3148FFF780FFA0
:104470003249386888421BD160897F2811D22A4985
:10448000637980310A2B05D10A1812F801CCBCF1EE
:104490000D0F03D00B54401C608103E0667002F8DE
:1044A000015C658119490122491D2548FFF760FF1C
:1044B00024493868884226D1A079234AA52818D0F3
:1044C000A17871B1A1895054491C89B2A1815A289F
:1044D00013D0802905D3A570A58180211046FBF754
:1044E000CBFE0A4901221948891DBDE8F041FFF7BA
:1044F0003FBFA6701070A681F3E7A570124800F0C8
:104500002DFBA581EDE7BDE8F081000060000020F3
:104510004000002018000020390000203C0000204E
:104520001A00002000100140947300206E35000036
:10453000740200206E3100006E320000004800401E
:10454000FC0200200044004094740020B8020020C7
:104550002DE9F84304460E4615461F4694F83D00E3
:10456000202802D00220BDE8F883C6B1BDB194F87E
:104570003C00012816D0012084F83C004FF00009CF
:10458000C4F84090212084F83D00FEF7FDFE8046EF
:10459000A584E584A068B0F5805F06D007E001201F
:1045A000BDE8F8830220BDE8F883206980B1354674
:1045B000002684F83C90E08CB8B14346002280216C
:1045C0002046009700F04EFD20B10320BDE8F8839F
:1045D0000025EEE7A5B12168287848606D1CE08CC5
:1045E000401EE084E08C0028E7D1434600224021B1
:1045F0002046009700F036FD48B10320BDE8F8835F
:1046000030882168C0F308004860B61CE7E7202026
:1046100084F83D000020BDE8F88370470B46024651
:1046200001A1054801F0D2BF25732E76616C3D25AE
:1046300064FFFFFF0000000074020020FEE700009E
:1046400030B587B000241E48059406940494009465
:104650000194029419490394C0E900148460046130
:10466000047680F820404FF08051C1620125C56179
:104670004FF0C061C460816280F830504561FEF740
:104680004AF908B1FDF7DAFE062004904FF4004025
:10469000CDE9050404A90A48FDF77CFF08B1FDF740
:1046A000CDFECDE90045694605480294FEF76AF85B
:1046B000002801D0FDF7C2FE07B030BD0020014048
:1046C000D80000207FB50024124800940194029481
:1046D0000F490394C0E9001484600461047680F8F3
:1046E00020400125C561C46080F830404561FEF777
:1046F00012F908B1FDF7A2FE0095CDE90154694613
:104700000448FEF73FF8002801D0FDF797FE7FBD73
:1047100000210140200100201CB500241049009414
:104720000E48019408600846FEF747FA08B1FDF705
:1047300085FE00940022694609480194FEF712FAAA
:1047400008B1FDF77BFE102269460548FEF70AFA1C
:10475000002801D0FDF772FE1CBD0000007400406F
:10476000C8010020094808B5016841F480010160D2
:104770000068002200F48000009011463820FEF707
:1047800073FEBDE808403820FEF760BE30380240B6
:1047900000B587B01C216846FBF76EFD17484FF047
:1047A0002041102201601649416002218160C160F0
:1047B0000421C0E9041200218161C1611302016278
:1047C000C0E90913C162016341638163C16341644C
:1047D000032000900120019002AB062083E807002F
:1047E0001120CDE90501002269460448FFF735FA9A
:1047F000002801D0FDF722FE07B000BDDC0100203B
:10480000040100A02DE9F04F87B014216846FBF7A2
:1048100033FD4C480026016841F0800101600168C9
:1048200001F080010591016841F00101016001681A
:1048300001F001010591016841F004010160016886
:1048400001F004010591016841F010010160016867
:1048500001F010010591016841F002010160016859
:1048600001F002010591016841F008010160016851
:1048700001F008010591016841F040010160016803
:1048800001F040010591016841F480710160006808
:10489000DFF8B49000F48070059000229021484623
:1048A000FEF76BFDDFF8A4A04FF47E4700223946E7
:1048B0005046FEF762FDDFF898B04FF4046800221E
:1048C00041465846FEF759FD002221212148FEF7B6
:1048D00054FD01249020CDE9000402256946484694
:1048E000CDE90245FEF71CFCCDE90074694650464F
:1048F000CDE90245FEF714FCCDE90084694658462F
:10490000CDE90245FEF70CFC2120CDE90004694603
:104910001048CDE90245FEF703FC4020CDE9000632
:10492000694602940C48FEF7FBFB4FF41470CDE986
:104930000006694602940948FEF7F2FB07B0BDE89D
:10494000F08F00003038024000080240001C024096
:104950000018024000200240000C02400004024007
:1049600010B586B000241648009401940294039474
:1049700004944FF080410594C0E900143B21C0E944
:10498000024104618461FFF7F8F908B1FDF756FDB3
:104990004FF48050009069460948FFF782FA08B149
:1049A000FDF74CFD2020CDE9040404A90448FFF7DD
:1049B00097F9002801D0FDF741FD06B010BD0000B9
:1049C0002C0200200C4810B50A4901604FF4E13177
:1049D0004160002181600C22C160C0E90412816144
:1049E000C161FFF705FC002803D0BDE81040FDF7CA
:1049F00025BD10BD00100140740200200C4810B508
:104A00000A4901604FF4E1314160002181600C22CC
:104A1000C160C0E904128161C161FFF7E9FB0028B0
:104A200003D0BDE81040FDF709BD10BD00440040B3
:104A3000B80200200C4810B50A4901604FF4E1317A
:104A40004160002181600C22C160C0E904128161D3
:104A5000C161FFF7CDFB002803D0BDE81040FDF792
:104A6000EDBC10BD00480040FC020020FEE7FEF750
:104A7000A3FEFEE70E48B0EE080ADFED0F0A80ED58
:104A8000000A9FED0C0A80ED010A80ED020AC0EDDC
:104A9000030ADFED0A0AC0ED040ADFED090AC0EDE2
:104AA000050A80ED060A80ED070A80ED080A7047C6
:104AB0004875002000000000CDCC4C3F3333333F1D
:104AC000CDCC4C3EF0B5244D00221346214C2D8810
:104AD00019E08A4219D21F4E0C3EF65CB6B1012E87
:104AE0001AD0022E23D0032E0FD1D61C8E420CD208
:104AF000871854F8236097ED000A86ED000A121D0E
:104B00005B1C92B29BB2AB42E3D3F0BD54F823607E
:104B1000875C521C3770F3E7561C8E42F5D287181B
:104B200054F823603F88921C7FBA3780E8E7D61C90
:104B30008E42EAD2871854F82360D7F800C0FF7875
:104B40009CFA8CFC2CF0FF0C4CEA070CC6F800C059
:104B5000D5E70000207500206E00002030B4032946
:104B60001BD30278A52A18D1441814F8012C5A2A0C
:104B700013D1C91E002389B2012204E0855C521CB6
:104B80002B44DBB292B28A42F8D914F8022C9A4232
:104B900003D130BC401CFFF795BF30BC7047704755
:104BA0007047FEF7F7BB000030B593B03021684680
:104BB000FBF762FB14210CA8FBF75EFB20480025E5
:104BC000016841F080510160006800F08050119050
:104BD0001C48016841F4404101600068022400F46F
:104BE0004040119001200090000401908001CDE927
:104BF0000640192008904FF4B470CDE90904042050
:104C00000B906846FEF7E8FD08B172B6FEE7FEF7C6
:104C100071FC08B172B6FEE70CA90F2081E83100E3
:104C20004FF4A0500F90109005210CA8FEF7A2FCA5
:104C300008B172B6FEE7FEF75BFD13B030BD0000B1
:104C400040380240007000400248016841F47001A1
:104C50000160704788ED00E0F0B402682C4B2D4CE9
:104C60002D4D2E4EDFF8B8C098420AD0B0F1804FDB
:104C700007D0A04205D0A84203D0B04201D0604581
:104C800003D122F070024F683A43984228D0B0F125
:104C9000804F25D0A04223D0A84221D0B0421FD0BF
:104CA00060451DD0A0F18044B4F5A03418D0A0F127
:104CB0008044B4F5A23413D0A0F18044B4F5A434F8
:104CC0000ED0A0F18044B4F5C05409D0A0F18044C6
:104CD000B4F5E05404D0A0F18044B4F5005403D1FD
:104CE00022F44072CC6822434C6922F080022243B5
:104CF00002608A68C2620A688262984201D0604596
:104D000001D10969016301214161F0BC70470000D4
:104D1000000001400004004000080040000C00407A
:104D200000040140D0F808C02CF47F4C42EA032272
:104D3000114341EA0C0181607047826822F07002E1
:104D4000114341F0070181607047036AD0F820C029
:104D50002CF0010CC0F820C0D0F818C02CF0F00CDA
:104D60004CEA021223F00A03194382610162704780
:104D7000036A23F010030362D0F818C0036A2CF40E
:104D8000704C4CEA023223F0A00343EA0111826125
:104D90000162704710B5806B0021C185C184FFF7A7
:104DA000F6F810BD01680C3151E8002F22F4907222
:104DB00041E80023002BF5D10168143151E8002FA0
:104DC00022F0010241E80023002BF5D1016B0129FB
:104DD00009D101680C3151E8002F22F0100241E89E
:104DE0000023002BF5D1202180F83E100021016323
:104DF000704710B50168CA6822F04002CA602021DD
:104E000080F83D10FFF709FC002010BD08B590F8B0
:104E10003E10222901D0022008BD8268B2F5805FD1
:104E200001D1016929B1816AB2F5805F1DD052B10B
:104E30000BE0816A02685268C2F308020A80816A44
:104E4000891C816209E002697AB10268526802F045
:104E50007F020A70816A491C8162C18D491E090462
:104E6000090CC18505D0002008BD026852680A708F
:104E7000F0E70168CA6822F02002CA600168CA68C7
:104E800022F48072CA6001684A6922F001024A6114
:104E9000202180F83E10016B012903D0FFF780FA32
:104EA000002008BD0021016301680C3151E8002F8A
:104EB00022F0100241E80023002BF5D101680A68B6
:104EC00012F0100F02D00A6849680091818DFFF737
:104ED0005DF8E5E72DE9F041044620680169E268E4
:104EE00021F44051114301612169A068E26908433E
:104EF0006169114301432068C26822F4037222F4FD
:104F000014421143C16020684169A26921F44071D3
:104F1000114341612068A0F18041B1F588312ED064
:104F2000A0F18041B1F58A3129D0FEF7EDFB84462E
:104F3000E16900201927254D3226B1F5004F22D016
:104F40006068830F8200ACFB0701FBF74BF9014659
:104F5000A5FB002040097A42424301EB820106EBA7
:104F60000111A5FB0121490901F0F00202EB00103B
:104F700001F00F01084421688860BDE8F081FEF768
:104F8000D3FB8446D4E761684A1840EB0003ACFBCE
:104F90000701FBF727F90346A5FB00104109184656
:104FA0000A016FF01803594300EB810006EBC000C3
:104FB000A5FB0010400900F0F80102EB410100F0F0
:104FC0000700084421688860BDE8F0811F85EB5127
:104FD00081628285C28500210164222280F83E2000
:104FE00080F83C100168CA6842F48072CA600168A7
:104FF0004A6942F001024A610068C16841F020013B
:10500000C1600020704790F83D10212901D0022096
:1050100070478168B1F5805F01D1016961B1016AB2
:105020004A1C0262026809785160C18C491E090459
:10503000090CC1840AD013E0016A02680988C1F32F
:1050400008015160016A891C0162EEE70168CA68C3
:1050500022F08002CA600068C16841F04001C1606E
:10506000002070472DE9F0410446069D884616460B
:105070001F462068006838EA00002AD00020B042AD
:1050800031D1B5F1FF3F26D025B1FEF77DF9C01B28
:10509000A84220D920680C3050E8001F21F4D071BC
:1050A00040E80012002AF5D12068143050E8001FB3
:1050B00021F0010140E80012002AF5D1202084F8F7
:1050C0003D0084F83E00002084F83C000320BDE849
:1050D000F0810120D3E72068006838EA000005D09D
:1050E0000020B042CDD00020BDE8F0810120F8E7DB
:1050F0000148FEF74DBF0000740200200148FEF792
:1051000047BF0000B80200200148FEF741BF000081
:10511000FC020020FEE700007CB5044600201D468E
:10512000164600290BD0491ECDE90041044B6A46C2
:105130002946304600F0D8FA009A002111707CBD53
:10514000175E00084100080218BF04200A0E18BFAD
:1051500040F001004FF07F4232EA010108BF40F009
:105160000200012808BF05207047000010EE100A59
:1051700010B510EE901A4FF0684202EB40032DED8F
:10518000028BB3F1654F3CBF02EB4102B2F1654FB8
:105190007CD200BFC0F3C753C1F3C7529A1A1B2A6F
:1051A00009DD10F0004F14BF9FED6E0A9FED6E0AEF
:1051B000BDEC028B10BD12F11A0F1BDA11F0004F7B
:1051C00009D010F0004F0CBF9FED680A9FED680AF0
:1051D000BDEC028B10BD80EE208A18EE100AFFF79E
:1051E000B1FF042808BF00F09FF9B0EE480ABDECFB
:1051F000028B10BD4200B2EB410F37D910F0004FC7
:1052000019BFDFED5C1A9FED5C1ADFED5C1A9FEDB4
:105210005C1AB0EE602A0A46F1EE400A80F00041C6
:10522000B0EE420A10460A1A5200B2F1807F34D220
:10523000484010F0004FDFED532A9FED533A1DBF59
:10524000BEEE002A71EEE21A31EE431AB6EE002AE3
:1052500004BF71EEA21A31EE031AF0EE402A42EEBC
:10526000602A40EE020A82EEA02A18E011F0004FF8
:1052700004BF9FED461AF0EE411AD4D010F0004F53
:105280001CBFDFED431A9FED431A00E026E004BF88
:10529000DFED411A9FED411AC5E780EE202A22EE8C
:1052A000020ADFED3F0ADFED3F2ABDEC028B40EE44
:1052B000202ADFED3D0A40EE220ADFED3C2A40EED7
:1052C000202ADFED3B0A40EE220A22EE000A00EE21
:1052D000201A31EE020A30EE210A10BD4FF07F4253
:1052E000B2EB400F28BFB2EB410F05D2BDEC028BF1
:1052F000BDE8104000F014B940EA01035B0008BFAC
:1053000041F0FF410BD0B2EB400F08BFB2EB410FB1
:1053100008D120F0804000EE100A21F0804100EE1C
:10532000901A37E7B2EB400F12BF5FEA410240F03C
:10533000FF4001F000413FF42DAF4A0092EA4003E4
:105340003FF528AF002AACBF9FED1A1A9FED1A1A3D
:1053500020EE010A60EE810A10EE100A10EE901A9B
:1053600018E70000DB0FC9BFDB0FC93FDB0F494067
:10537000DB0F49C00000C9BF22AAFDB90000C93F28
:1053800022AAFD390060ED3EC30ACE3700000000BE
:10539000000049C022AA7DBA0000494022AA7D3AF5
:1053A0002DAD65BD8FB8D53D0FB511BE61C84C3E62
:1053B000A8AAAABE0000804F0000802F10B52DEDD6
:1053C000028BB0EE608AF0EE408A18EE101A18EEEA
:1053D000900AFBF737FA00F07040B0F1005F0CD094
:1053E00018EE100A20F00040C0F1FF40C00F02BFCD
:1053F000B0EE480ABDEC028B10BDB0EE680ABDEC01
:10540000028B10BD10B52DED028BB0EE608AF0EE70
:10541000408A18EE101A18EE900AFBF713FA00F003
:105420007040B0F1004F0CD018EE100A20F0004090
:10543000C0F1FF40C00F02BFB0EE480ABDEC028BC6
:1054400010BDB0EE680ABDEC028B10BD10B52DED9D
:10545000028BB0EE408A18EE100AFBF7A1F801EEBD
:10546000100A18EE100AB7EE000A78EE410A10F0A2
:10547000004F4FF07F4010EE901A12D0B1F13F4F25
:1054800024BF10EE901AB0EB410F12D210EE901A1A
:10549000B1F17C5F1CDD10EE901AB0EB410F17D319
:1054A00014E0B1F13F4F07D910EE901AB0EB410F65
:1054B00002D331EE401A0BE010EE901AB1F17C5F8E
:1054C00006DB10EE901AB0EB410F01D331EE001A5B
:1054D00018EE100ABDEC028B11EE101A61F31E00DB
:1054E00000EE100A10BD10B52DED028BB1EEC08A92
:1054F00018EE100A20F00040C0F1FF40C00F0AD0A3
:1055000010EE100A20F00040C0F1FF40C00F04BFB1
:10551000012000F021F8B0EE480ABDEC028B10BD6E
:1055200030EE200A704700009FED020A20EE000ACC
:10553000704700000000001002E008C8121F08C1F8
:10554000002AFAD170477047002001E001C1121F04
:10555000002AFBD170470000014908607047000035
:10556000D40000202DE9FF5F82B00021DDE9043086
:10557000020DDDF840B0034318D044F61050A2F2FB
:10558000FF3242431514119801281FD0A5EB0B00E0
:10559000401C5FEA000A4FF000064E4FDFF83891DA
:1055A000B046504615D5CAF1000413E01198012405
:1055B0004AA3012801D16FEA0B010298119AC0E9B0
:1055C0000031C0E9024206B0BDE8F09FCBF1000017
:1055D000DFE704460021404A491842EB0450CDE978
:1055E000001012E0E00707D032463B4640464946ED
:1055F000FAF74DFE8046894632463B46104619462C
:10560000FAF745FE06460F466410002CEAD1DDE9A4
:105610000401DDE90023BAF1000F06DAFAF737FEDC
:1056200042464B46FAF733FE05E0FAF7A2FE424641
:105630004B46FAF79EFE04460E460022284BFBF727
:10564000E9F803D84FF0FF30014607E00022254B70
:1056500020463146FBF71FF8FBF7C4F8102409E099
:10566000002C0ADB0A220023FAF7BCFD039B303230
:105670001A55641E50EA0102F2D1641C039AC4F167
:1056800011031444119A012A03D0012208430DD1B9
:105690000AE0084304D000204FF0110B119072E78C
:1056A000A3EB0B056D1E0DE05B4504DD4FF0000222
:1056B00005F1010504E003DA4FF00002A5F1010550
:1056C000002AECD002981199C0E90231C0E90045E6
:1056D00079E70000000014400000F03F30000000B7
:1056E0000000F0430000E03F2DE9FF4F95B09B46DE
:1056F0008946064600250FE2252877D10024274653
:10570000F84A0121059400E0044316F8013F203BCC
:1057100001FA03F01042F7D130782A2811D06FF047
:105720002F033078A0F13002092A16D8059A44F0E8
:10573000020402EB820203EB42021044761C059045
:10574000EFE759F8042B0592002A03DA504244F49B
:105750000054059044F00204761C30782E2816D1AF
:1057600016F8010F44F004042A280DD06FF02F0220
:105770003078A0F13003092B09D807EB870302EB3F
:105780004303C718761CF3E759F8047B761C30787E
:105790006C280FD006DC4C2817D068280DD06A285A
:1057A00014D104E0742810D07A280FD10DE044F40D
:1057B00000140AE044F4801401E044F440147278C8
:1057C000824202D104F58014761C761C307866285B
:1057D0000BD013DC582877D009DC002875D0452879
:1057E000F6D04628F4D047281AD19DE118E0632866
:1057F00035D0642879D0652812D195E1702873D00E
:1058000008DC6728F1D069286FD06E280DD06F288A
:1058100006D1B5E073282CD0752875D0782874D0BF
:105820005A46179990476D1C75E1C4F3025002283F
:1058300009D003280DD0D9F8001004280DD00D6030
:1058400009F1040967E1D9F80010EA17C1E900522B
:10585000F6E7D9F800100D80F2E70D70F0E719F8BF
:10586000041B8DF8001000208DF80100EA4601208D
:1058700003E059F804AB4FF0FF3061074FF000012F
:1058800002D40DE008F101018846B9420FDA8045E3
:10589000F8DB1AF808100029F4D108E008F101013A
:1058A00088468142FADB1AF808100029F6D10598DB
:1058B0005B46A0EB080721463846179A00F094FA99
:1058C000284400EB080507E04DE029E10DE01AF857
:1058D000010B5A4617999047B8F10108F7D25B4679
:1058E00021463846179A13E142E00A220092C4F397
:1058F00002524FF0000A022A08D059F804CB032ABA
:105900004FEAEC710AD00DE029E02AE009F1070125
:1059100021F00702F2E802C1914609E00FFA8CFC7F
:105920004FEAEC71042A03D14FFA8CFC4FEAEC7178
:10593000002907DA0A460021DCF1000C61EB0201C4
:105940002D2202E0220504D52B228DF8042001220D
:1059500003E0E20701D02022F7E7904659E00A2150
:1059600002E010220DE010214FF0000A00910BE040
:1059700010224FF0000A44F004040827009203E0CC
:1059800008224FF0000A0092C4F30252022A05D006
:1059900059F804CB0021032A08D009E009F10701D6
:1059A00021F00702F2E802C1914605E01FFA8CFCE3
:1059B000042A01D10CF0FF0C4FF00008220728D573
:1059C000702806D0009B83F0100353EA0A0305D029
:1059D0000EE040228DF80420012208E05CEA01027A
:1059E00006D030228DF804208DF805000222904662
:1059F000009B83F0080353EA0A030AD15CEA010220
:105A000001D1620705D530228DF804204FF001083E
:105A10007F1E582804D034A003900EA802900DE0F9
:105A200036A0F9E753466046009AFAF7DBFB844656
:105A30000398825C0298401E029002705CEA0100AA
:105A4000F0D1029806A9081A00F1200A600702D5D1
:105A500024F4803400E00127574502DDA7EB0A005B
:105A600000E0002000EB0A01009005984144401A34
:105A70000590E00306D45B462146179A059800F08E
:105A8000B3F90544002706E001A85A46C05D1799FE
:105A900090476D1C7F1C4745F6DBE0030CD55B4649
:105AA0002146179A059800F09FF9054404E030203C
:105AB0005A46179990476D1C0099481E009000297E
:105AC000F5DC08E0029802995A460078491C0291D8
:105AD000179990476D1CBAF10001AAF1010AF1DC97
