:020000040800F2
:10000000780900204D020008831800080F16000828
:100010008118000889040008A51C000800000000E1
:10002000000000000000000000000000651900084A
:100030008B0400080000000063190008671900081D
:1000400067020008670200086702000867020008EC
:1000500067020008670200086702000867020008DC
:1000600067020008670200086702000867020008CC
:1000700067020008670200086702000867020008BC
:1000800067020008670200086702000867020008AC
:10009000670200086702000867020008670200089C
:1000A000670200086702000867020008670200088C
:1000B000670200086702000867020008670200087C
:1000C000670200086702000867020008670200086C
:1000D00067020008811C00088D1C0008991C00089C
:1000E000670200086702000867020008670200084C
:1000F000670200086702000867020008670200083C
:10010000670200086702000867020008670200082B
:10011000670200086702000867020008670200081B
:10012000670200086702000867020008670200080B
:1001300067020008670200086702000867020008FB
:1001400067020008670200086702000867020008EB
:1001500067020008670200086702000867020008DB
:1001600067020008670200086702000867020008CB
:10017000670200086702000867020008000000002C
:1001800067020008670200086702000867020008AB
:10019000670200086702000867020008670200089B
:1001A00067020008670200086702000800F002F812
:1001B00000F03CF80AA090E8000C82448344AAF1C5
:1001C0000107DA4501D100F031F8AFF2090EBAE8C3
:1001D0000F0013F0010F18BFFB1A43F0010318477B
:1001E000B41B0000D41B0000103A24BF78C878C1AB
:1001F000FAD8520724BF30C830C144BF04680C602D
:10020000704700000023002400250026103A28BF74
:1002100078C1FBD8520728BF30C148BF0B60704778
:100220001FB501F0A5FD1FBD10B510BD00F0F7F81A
:100230001146FFF7F5FF01F047FD00F015F903B493
:10024000FFF7F2FF03BC00F019F9000009488047EE
:1002500009480047FEE7FEE7FEE7FEE7FEE7FEE7A8
:10026000FEE7FEE7FEE7FEE704480549054A064BC0
:10027000704700000D1A0008AD0100087803002047
:1002800078090020780500207805002053EA020C48
:1002900000F069802DE9F04B4FF00006002B1FBFE6
:1002A000B3FA83F503FA05F424FA05F65E4012BFAB
:1002B0001643B2FA82F502FA05F4C5F120051EBF15
:1002C00022FA05FC44EA0C04203556EA044C4FEAB5
:1002D000144418BF641C4FF000084FF0000990420E
:1002E00071EB030C39D3002919BFB1FA81F701FA78
:1002F00007F6B0FA80F700FA07F6C7F120071EBF2D
:1003000020FA07FC46EA0C062037B6FBF4FCA7EB04
:100310000507103F07F01F0BCBF120060CFA0BFB73
:100320002CFA06F644BFB3460026202FA4BF5E4633
:100330004FF0000B5BEA060C08BF4FF0010B19EB06
:100340000B09ABFB027C48EB0608C01B06FB02CC8A
:100350000BFB03CC71EB0C01C1E70B460246414697
:100360004846BDE8F08B13B54FF000004FF0000198
:10037000AFF30080BDE81C4070474FF00002042935
:10038000C0F0128010F0030C00F01B80CCF1040CC4
:10039000BCF1020F18BF00F8012BA8BF20F8022BF8
:1003A000A1EB0C0100F00DB85FEAC17C24BF00F89E
:1003B000012B00F8012B48BF00F8012B70474FF0CC
:1003C000000200B5134694469646203922BFA0E8A5
:1003D0000C50A0E80C50B1F12001BFF4F7AF0907B1
:1003E00028BFA0E80C5048BF0CC05DF804EB8900A2
:1003F00028BF40F8042B08BF704748BF20F8022BE5
:1004000011F0804F18BF00F8012B704770477047FC
:10041000704700000048704714030020704775467D
:10042000FFF7F8FFAE4605006946534620F0070087
:10043000854618B020B5FFF717FFBDE820404FF004
:1004400000064FF000074FF000084FF0000B21F0BE
:100450000701AC46ACE8C009ACE8C009ACE8C0098B
:10046000ACE8C0098D46704710B50446AFF3008074
:100470002046BDE81040FFF7E2BE00000149182009
:10048000ABBEFEE726000200FEE7704772B6FEE74D
:1004900030B5B3F5804F05D06FF0704140F82210B1
:1004A000002030BD8C690B688D6823434C688989B6
:1004B000240144EA0524234343EA014150F8223051
:1004C000014C23401943E9E70000F0CF30B50A683A
:1004D00050F8223023F0010340F822308C68082CB9
:1004E00028D000234A68184D2243CC681C430B696E
:1004F00022431A434B691A43CB691A430B6A1A43C6
:100500004B6A1A438B6A1A43CB6A1A430B6B1A4322
:100510008B6913434A6B1A43CB6B13430A6850F839
:100520002240AC431C4340F822404A6BB2F5801F86
:1005300002D007E04023D5E7096819B1016841F40A
:1005400080110160002030BD7FFF1F0070B5D1E930
:10055000003443EA04138C688D89240244EA05447C
:1005600023430D8A114C00EB820204EB05552B430B
:100570000D7D660106EB05652B438D692B435568A0
:1005800005F040452B4353600268D2020BD5426808
:10059000098A22F4700204EB01511143426822F4EB
:1005A00070020A434260002070BD00000000F0FFAE
:1005B0002DE9F0410446876D00F0C8F9064694F82D
:1005C00035000025022806D08020606584F834506C
:1005D0000120BDE8F0812068016821F0160101606A
:1005E0002068416921F080014161206C08B9A06C4C
:1005F00020B12068016821F00801016020680168CD
:1006000021F0010101600CE000F0A0F9801B052839
:1006100007D920206065032084F8350084F8345021
:10062000D7E720680068C007EED194F85C103F203F
:100630008840B860012084F8350084F834500020E8
:10064000C7E790F83510022903D0802141650120C9
:100650007047052180F835100068016821F001011C
:100660000160002070470000F0B587B01421684693
:10067000FFF7A5FE1F480168002938D1012101605C
:100680001D480024016841F0010101600068022555
:1006900000F0010005904FF68070CDE9000502AA38
:1006A00003260C2782E8D0006946144800F02EF893
:1006B0004CF23370CDE9000502AA694682E8D00009
:1006C0000F4800F023F82802CDE9000502AA694688
:1006D00082E8D0000B4800F019F88020CDE9000531
:1006E00002AA694682E8D000074800F00FF807B078
:1006F000F0BD000000000020383802400010024029
:10070000000C024000180240000402402DE9F84F9E
:10071000DFF8F8A10022012403254FF00F090AF1A8
:10072000040BAAF1040E00BF0B6804FA02F6334072
:10073000B34270D10F7907F00307012F01D0022FC8
:1007400016D187684FEA420805FA08FC27EA0C0729
:10075000D1F80CC00CFA08FC4CEA070CC0F808C031
:100760004768B7430E79C6F3001696403E4346608D
:100770000E79F643B6070AD0C7684FEA420C05FA6D
:100780000CF6B7438E6806FA0CF63E43C6600E7947
:1007900006F00306022E10D1D60800EB8608D8F822
:1007A000206057074FEAD76C09FA0CF7BE430F6970
:1007B00007FA0CF73743C8F8207006684FEA420C76
:1007C00005FA0CF7BE430F7907F0030707FA0CF799
:1007D000374307604E6816F4403F1CD04C4E3768D4
:1007E00047F480473760366822F0030706F48046F6
:1007F0000096484E07EB060CDCF8086897073F0F99
:1008000009FA07F826EA0806DFF80C81404503D10B
:100810004FF0000841E072E0DFF80081404502D16E
:100820004FF0010839E0DFF8F880404502D14FF081
:10083000020832E0DFF8EC80404502D14FF00308B7
:100840002BE0DFF8E480404502D14FF0040824E0BB
:10085000DFF8D880404502D14FF005081DE0DFF8F1
:10086000D080404502D14FF0060816E0DFF8C48082
:10087000404502D14FF007080FE0DFF8BC8040454B
:1008800002D14FF0080808E0DFF8B080404502D1FF
:100890004FF0090801E04FF00A0808FA07F848EAA3
:1008A0000608CCF80888DAF800605746D1F804C08A
:1008B0009E435FEACC2C00D51E433E60DBF800600F
:1008C0005F46D1F804C09E435FEA8C2C00D51E43DE
:1008D0003E60DEF800607746D1F804C09E435FEAD0
:1008E0008C3C00D51E433E60084F083F3E68D1F85F
:1008F00004C09E435FEACC3C00D51E433E60521CC0
:10090000102AFFF411AFBDE8F88F0000083C014049
:100910004438024000300140000002400004024020
:1009200000080240000C0240001002400014024087
:1009300000180240001C0240002002400024024037
:100940000AB1816170470904FBE700000148806833
:1009500070470000080000200248816802781144B6
:1009600081607047080000200B4810B5016841F411
:1009700000710160016841F480610160016841F427
:1009800080710160032000F06FF80F2000F006F87E
:1009900000F024F8002010BD003C024070B50D4D61
:1009A00004464FF47A712878B1FBF0F00A490968DF
:1009B000B1FBF0F000F08AFB48B9102C07D20022FE
:1009C0002146501E00F030F800206C6070BD012000
:1009D00070BD000008000020140000200A4808B57F
:1009E000016841F480410160006800F4804000909B
:1009F0000548001F016841F080510160006800F067
:100A00008050009008BD000044380240002809DBF7
:100A100000F01F02012191404009800000F1E02018
:100A2000C0F8001170470000F0B40E4B1B680C4674
:100A3000C3F30223C3F10705042D00D90425191DB2
:100A4000072901D2002300E0DB1E012606FA05F18A
:100A5000491E214099409E40761E16403143F0BC0D
:100A600001F021B90CED00E0064900F0070208682A
:100A70004FF6FF03184040EA0220034A1043086083
:100A8000704700000CED00E00000FA052DE9F84386
:100A90001748016841F0805101600068154F00F06F
:100AA0008050012600903E64FFF750FF05464FF44A
:100AB0007A78114C05E000BFFFF748FF401B404526
:100AC0000DD86068C003F7D57E64FFF73FFF054689
:100AD000464607E0FFF73AFF401BB04202D9032029
:100AE000BDE8F88360688003F4D50020F8E70000D3
:100AF0004038024000000E42007000407047000085
:100B00002DE9F0470E46050065D0DFF81481D8F8CE
:100B10000000F7B200F00F00B04207D288F8007072
:100B2000D8F8000000F00F00B04254D128683D4CC6
:100B3000810712D5400703D5206840F4E0502060BB
:100B40002878000703D5206840F4604020602068C2
:100B5000A96820F0F000084320602878C0072DD055
:100B6000304968680839012812D0022813D00328B8
:100B700011D00968890700292DDA216821F00301C5
:100B800001432160FFF7E2FE814641F2883A0EE020
:100B900009688903EFE709688901ECE7FFF7D6FEEA
:100BA000A0EB0901514502D90320BDE8F087206878
:100BB000696800F00C00B0EB810FEFD1D8F800109D
:100BC000404601F00F01B14207D90770006800F0FC
:100BD0000F00B04201D00120E7E72878400705D593
:100BE0002068E96820F4E050084320602878000776
:100BF00006D52068296920F4604040EAC1002060E1
:100C000000F03EF82168084AC1F30311515CC84066
:100C10000649086006480068FFF7C0FE0020C4E7E8
:100C2000003C0240083802407A1D000814000020F1
:100C30000C00002001490120C864704700004742B1
:100C40000448054900680968044AC1F38221515CDF
:100C5000C840704714000020083802408A1D000870
:100C60000448054900680968044AC1F34231515CEF
:100C7000C840704714000020083802408A1D000850
:100C8000154810B5006810F00C02144813D0144930
:100C9000042A0FD0082A0ED10F4C241F2268236883
:100CA00002F03F025B0207D52068C0F38810A0FB6A
:100CB000010106E0084610BD2168C1F38811A1FBBF
:100CC00000010023FFF7E2FA2168C1F30141491C4A
:100CD0004900B0FBF1F010BD083802400024F400D8
:100CE00040787D01054810B50068000605D5FFF77E
:100CF00005FF02498020891C087010BD0C38024095
:100D00002DE9F84F04006ED02078DFF84C93C0072F
:100D1000A9F104054AD009F104000168C1F3810179
:100D2000012908D00068C0F3810002280AD1D9F84F
:100D30000000400206D52868800337D56068002887
:100D4000E1D033E06068B0F5803F10D0B0F5A02F5F
:100D5000286810D020F480302860286820F4802093
:100D600028606068A8B1FFF7F1FD06460DE028682D
:100D700040F48030F4E740F480202860F7E700BFBB
:100D8000FFF7E4FD801B642873D828688003F7D53B
:100D90000CE0FFF7DBFD064605E000BFFFF7D6FDE0
:100DA000801B6428F0D828688003F7D42078DFF807
:100DB000AC8280074FF0000A3ED5A748001D0168AD
:100DC00011F00C0F08D00068C0F3810002280BD18D
:100DD000D9F80000400207D42868800716D5E068DB
:100DE000012800D112E033E1E068B8B10120C8F871
:100DF0000000FFF7ABFD064605E000BFFFF7A6FDCC
:100E0000801B0228C0D828688007F7D52868216988
:100E100020F0F80040EAC10028600DE0C8F800A00A
:100E2000FFF794FD064604E0FFF790FD801B0228C3
:100E30001FD828688007F7D42078000722D5864F6E
:100E400087486169703771B101210160FFF77EFD4C
:100E5000064604E0FFF77AFD801B022809D83868AF
:100E60008007F7D50EE0C0F800A0FFF76FFD06463B
:100E700005E082E0FFF76AFD801B02287DD8386814
:100E80008007F7D42078400768D5DFF8CCB1002779
:100E90000BF13C0BDBF80000C0000BD4DBF80010BA
:100EA00041F08051CBF80010DBF80000012700F082
:100EB000805000906B4E3068C00510D4306840F40C
:100EC00080703060FFF742FD009005E0FFF73EFDC7
:100ED0000099401A022850D83068C005F6D55E4EF9
:100EE000A0686C3601280FD00528306810D020F09B
:100EF00001003060306820F004003060A068B8B1B4
:100F0000FFF724FD00900FE0306840F00100F4E7A7
:100F100040F004003060F7E7FFF718FD0099411A30
:100F200041F28830814266D830688007F4D50EE0FF
:100F3000FFF70CFD009007E0FFF708FD0099411A4C
:100F400041F28830814256D830688007F4D42FB1FE
:100F5000DBF8001021F08051CBF80010A069C8B375
:100F60003D49091D0968C1F3810102294AD00228BF
:100F7000504607D0C8F8600000E03CE0FFF7E6FC10
:100F800004463BE04746C8F86000FFF7DFFC064632
:100F900005E000BFFFF7DAFC801B02282BD8286889
:100FA0008001F7D4D4E907010843A16A2E4A490811
:100FB00002EB0141626A41EA8211084394F82C1065
:100FC00040EA0161C9F8001001203866FFF7BEFC55
:100FD000044606E03EE000BFFFF7B8FC001B022815
:100FE00009D828688001F7D534E000BFFFF7AEFCD0
:100FF000001B022802D90320BDE8F88F2868800171
:10100000F4D427E00128F7D0D9F80000E26900F411
:10101000800191421CD1226A00F03F01914217D118
:1010200047F6C071626A0140B1EB821F10D1A26A1B
:101030004FF0FF3300F4403103EB5202B1EB024FAB
:1010400006D194F82C1000F07060B0EB016F01D065
:101050000120D1E70020CFE70438024000004742DA
:10106000800E4742007000400000FFFF70B515463B
:101070000E46040003D094F8490010B107E00120A7
:1010800070BD002084F84800204600F01DF804F1EF
:1010900008012068FFF71AFA3146A2682068FFF7B6
:1010A00055FAD4E901022946236BFFF7F1F92168CB
:1010B000A06851F8202042F0010241F820200120D0
:1010C00084F84900002070BDFFF7CEBA10B5401E6D
:1010D000B0F1807F01D3012010BD4FF0E0246061AA
:1010E0000F21601700F0DFFD0020A06107202061C4
:1010F000002010BD70477047F8B5016804460868C5
:10110000CA684B6910F00F0F4FF0000559D003F07B
:10111000010602F49077374365D0C10705D0D105A9
:1011200003D5616C41F001016164410705D5D90720
:1011300003D0616C41F002016164810705D5D907D4
:1011400003D0616C41F004016164010707D502F02E
:101150002001314303D0616C41F008016164616C8E
:1011600000293AD0800604D5900602D5204600F02A
:1011700084FC20684069616CC0F38010090700D4CA
:1011800060B3204600F052FC20684069400621D53B
:101190002068143050E8001F21F0400140E80012A0
:1011A000002AF5D1E06BA8B16E490165E06BFFF74D
:1011B00048FA002811D0E06B016D01B0BDE8F040A5
:1011C000084783060FD593060DD52046BDE8F840A5
:1011D00000F053BC2046FFF78EFFF8BD2046FFF716
:1011E0008AFF6564F8BD266B2023012E7DD1C606DB
:1011F0007BD5D60679D508684868009048694FF0D5
:101200000206400641D5E16B086840680004000C06
:10121000E8D0A28D8242E5D9E085C869B0F5807F2B
:101220002DD020680C3050E8001F21F4807140E878
:101230000012002AF5D12068143050E8001F21F078
:10124000010140E80012002AF5D12068143050E86E
:10125000001F21F0400140E80012002AF5D184F877
:101260004230256320680C3050E8001F21F0100147
:1012700040E80012002AF5D1E06BFFF799F96663A8
:10128000A08DE18D401A81B22AE0A08DE18D401A37
:1012900081B2E08D0028A5D00029A3D022680C32AD
:1012A00052E8000F20F4907042E80007002FF5D1BB
:1012B0002068143050E8002F22F0010240E8002797
:1012C000002FF5D184F84230256320680C3050E8B7
:1012D000002F22F0100240E80023002BF5D16663B6
:1012E0002046FFF707FFF8BDFFE705062BD51506DB
:1012F00029D594F841002128F5D1A068B0F5805F88
:1013000001D12069B0B1206A411C216221680078B6
:101310004860E08C401E0004000CE084E3D12068AB
:10132000C16821F08001C1602068C16841F04001BE
:10133000C160D8E7206A0088C0F308004860206ACE
:10134000801C2062E5E74006CDD55006CBD5CA68A3
:10135000204622F04002CA6084F8413000F056F97D
:10136000C1E700001D1A000870B5040004D094F80D
:101370004100002510B106E0012070BD84F8405006
:10138000204600F023F8242084F841002068C1683A
:1013900021F40051C160204600F0D0FB20680169B3
:1013A00021F4904101612068416921F02A014161E5
:1013B0002068C16841F40051C1606564202084F850
:1013C000410084F842006563002070BDF0B587B02D
:1013D000044614216846FEF7F2FF3D4B27680022C1
:1013E0003C490224032507263B489F4221D1394B23
:1013F00014331F6847F010071F601B6803F01003C9
:1014000005930B6843F001030B60096802AB01F020
:10141000010105916902CDE9001483E86400694681
:10142000FFF774F9002211462520FFF7FDFA252069
:1014300024E0284BDFF8A4C01033674522D11F6891
:1014400047F400371F601B6803F4003305930B68F3
:1014500043F001030B60096802AF01F0010105913F
:101460000C21CDE9001487E864006946FFF74EF9C6
:10147000002211462620FFF7D7FA2620FFF7C6FAEA
:1014800007B0F0BD16488742FAD1186840F48020B2
:101490001860186800F480200590086840F0020089
:1014A0000860086802AF00F0020005904FF4406049
:1014B000CDE9000487E8640069460A48FFF726F989
:1014C000002211462720FFF7AFFA2720D6E70000B9
:1014D000001001403038024000000240004400404B
:1014E000004800400004024090F84230202B01D018
:1014F0000220704721B11AB10023036300F0A4BB9E
:10150000012070472DE9F041074600683649012661
:101510000025364C88421AD1E0887F2810D2E37823
:1015200033490A2B05D10A1812F801CCBCF10D0F72
:1015300003D00B54401CE08003E0267002F8015CED
:10154000E5802A490122C91C2A48FFF7CDFF2A4914
:10155000386888421BD120897F2811D224492379F9
:1015600080310A2B05D10A1812F801CCBCF10D0FFD
:1015700003D00B54401C208103E0667002F8015C2C
:1015800025811A490122091D1C48FFF7ADFF1C499E
:101590003868884226D160791A4AA52818D0A178DF
:1015A00071B161895054491C89B261815A2813D0A4
:1015B000802905D3A570658180211046FEF7DDFEE8
:1015C000BDE8F04109490122491D0F48FFF78CBFD2
:1015D000A67010706681F3E7A5700A4800F0A0F9C4
:1015E0006581EDE7BDE8F0810010014018000020A2
:1015F0006001002088000020004800401801002001
:101600000044004060020020D00000207047FEE748
:1016100000B587B01C216846FEF7D1FE17484FF091
:101620002041102201601649416002218160C160A1
:101630000421C0E9041200218161C161016241629B
:101640008162C162016341638163C16341640320BC
:1016500000900120019002AB062083E807001120D2
:10166000CDE90501002269460448FFF7FFFC002888
:1016700001D0FEF70BFF07B000BD000038000020CE
:10168000040100A02DE9F04F87B014216846FEF751
:1016900096FE4B48016841F080010160016801F04D
:1016A00080010591016841F001010160016801F0CC
:1016B00001010591016841F010010160016801F02C
:1016C00010010591016841F002010160016801F01B
:1016D00002010591016841F008010160016801F013
:1016E00008010591016841F040010160016801F0C5
:1016F00040010591016841F004010160016801F0B9
:1017000004010591016841F4807101600068DFF80F
:10171000B48000F480700590002210214046FFF74D
:101720000FF9DFF8A4904FF47E4600223146484678
:10173000FFF706F9DFF894A04FF40467002239465A
:101740005046FFF7FDF8DFF888B0002280215846A8
:10175000FFF7F6F8002221211E48FFF7F1F80124D7
:101760001020CDE90004022569464046CDE9024536
:10177000FEF7CCFFCDE9006469464846CDE9024555
:10178000FEF7C4FFCDE9007469465046CDE9024535
:10179000FEF7BCFF8020CDE9000469465846CDE93C
:1017A0000245FEF7B3FF2120CDE900046946094850
:1017B000CDE90245FEF7AAFF07B0BDE8F08F0000B3
:1017C0003038024000000240001C02400018024075
:1017D00000080240002002400C4810B50A49016090
:1017E0004FF4E1314160002181600C22C160C0E909
:1017F00004128161C161FFF7B7FD002803D0BDE885
:101800001040FEF743BE10BD0010014088000020CC
:101810000C4810B50A4901604FF4E13141600021E4
:1018200081600C22C160C0E904128161C161FFF7CF
:101830009BFD002803D0BDE81040FEF727BE10BD79
:1018400000440040D00000200C4810B50A49016057
:101850004FF4E1314160002181600C22C160C0E998
:1018600004128161C161FFF77FFD002803D0BDE84C
:101870001040FEF70BBE10BD0048004018010020CC
:10188000FEE7FFF72FFAFEE7F0B5244D00221346DE
:10189000214C2D8819E08A4219D21F4E0C3EF65C6D
:1018A000B6B1012E1AD0022E23D0032E0FD1D61C92
:1018B0008E420CD2871854F8236097ED000A86ED0B
:1018C000000A121D5B1C92B29BB2AB42E3D3F0BD87
:1018D00054F82360875C521C3770F3E7561C8E4225
:1018E000F5D2871854F823603F88921C7FBA37805E
:1018F000E8E7D61C8E42EAD2871854F82360D7F85E
:1019000000C0FF789CFA8CFC2CF0FF0C4CEA070C12
:10191000C6F800C0D5E70000EC020020240000203B
:1019200030B403291BD30278A52A18D1441814F81F
:10193000012C5A2A13D1C91E002389B2012204E0C6
:10194000855C521C2B44DBB292B28A42F8D914F85F
:10195000022C9A4203D130BC401CFFF795BF30BC2B
:10196000704770477047FEF7F7BF000030B593B07F
:1019700030216846FEF723FD14210CA8FEF71FFD59
:1019800020480025016841F080510160006800F0A6
:10199000805011901C48016841F44041016000688A
:1019A000022400F4404011900120009000040190B6
:1019B0008001CDE90640192008904FF4B470CDE9BC
:1019C000090404200B906846FFF79AF908B172B633
:1019D000FEE7FFF75BF808B172B6FEE70CA90F202F
:1019E00081E831004FF4A0500F90109005210CA811
:1019F000FFF786F808B172B6FEE7FFF71BF913B0E0
:101A000030BD0000403802400070004002480168CC
:101A100041F470010160704788ED00E010B5806B03
:101A20000021C185C184FFF766FB10BD01680C3140
:101A300051E8002F22F4907241E80023002BF5D1E9
:101A40000168143151E8002F22F0010241E800231F
:101A5000002BF5D1016B012909D101680C3151E846
:101A6000002F22F0100241E80023002BF5D12021A5
:101A700080F8421000210163704708B590F84210C9
:101A8000222901D0022008BD82684FF480539A4277
:101A900001D1016921B1816A9A421BD04AB10AE0A1
:101AA0000268816A5268C2F308020A80816A891C4E
:101AB00008E0026972B10268526802F07F020A709F
:101AC000816A491C8162C18D491E0904090CC185C6
:101AD00003D01BE002685268F1E70168CA6822F08F
:101AE0002002CA600168CA6822F48072CA60016874
:101AF0004A6922F001024A61202180F84210002147
:101B00004163026B012A03D0FFF7FCFC002008BDF3
:101B1000016301680C3151E8002F22F0100241E806
:101B20000023002BF5D101680A68D20602D50A68A5
:101B300049680091818DFFF7DDFAE7E770B504464B
:101B400000680169E26821F4405111430161216993
:101B5000A068E26908436169114308432168CA68C3
:101B600049F20C639A430243CA6020684169A26942
:101B700021F440711143416131492068884202D00B
:101B80003049884202D1FFF76BF801E0FFF758F8BF
:101B9000E2690023192164253226B2F5004F6268FC
:101BA00028D0A0FB0101930F9200FEF76FFB0146C6
:101BB000B0FBF5F06FF01802504301EB800006EB2C
:101BC0000010B0FBF5F000F0F002B1FBF5F002EB15
:101BD0000012B1FBF5F06FF01803584301EB8000E1
:101BE00006EB0010B0FBF5F000F00F002168104488
:101BF000886070BDA0FB010192185B41FEF746FBB7
:101C00000146B0FBF5F00201B1FBF5F06FF01803EF
:101C1000584301EB800006EBC000B0FBF5F000F08C
:101C2000F80002EB4002B1FBF5F0584301EB8000F5
:101C300006EBC000B0FBF5F000F00700D6E70000AF
:101C4000001001400014014081628285C28500219C
:101C50004164222180F84210016921B10168CA68FB
:101C600042F48072CA6001684A6942F001024A6126
:101C70000068C16841F02001C16000207047000089
:101C80000148FFF739BA0000880000200148FFF73B
:101C900033BA0000D00000200148FFF72DBA000041
:101CA00018010020FEE70907090E002804DB00F1F7
:101CB000E02080F80014704700F00F0000F1E020F1
:101CC00080F8141D70477047FEF74EFEFFF74EFE7A
:101CD000FFF7D8FCFFF79CFCFFF77EFDFFF798FDB0
:101CE000FFF7B2FD01220A490A48FFF7FDFB012276
:101CF00009490A48FFF7F8FB012209490948FFF79B
:101D0000F3FB00F011F800BF00F014F8FCE700004E
:101D10001B000020880000201D000020D0000020B3
:101D20001C000020180100200149012008707047A4
:101D3000280000202DE9F0410C4D00242E1F10E05A
:101D4000FEF704FE04EB440205EB8201D1E9013702
:101D50003B44834203D8886055F822008047641CC6
:101D6000E4B230788442EBD3BDE8F0812C0000204F
:101D70004FF04070E1EE100A7047000000000000D4
:101D80000000010203040607080900000000010228
:101D900003040000B41D000800000020380000000B
:101DA000E8010008EC1D0008380000204009000090
:101DB0000402000800000000000000000100000014
:101DC00010000000000000000024F40000000000EB
:101DD0000000000000000000000000000000000003
:0C1DE000C71C000801000000000000000B
:04000005080001AD41
:00000001FF
